:100000000C9404010C9468190C9499190C94CA1955
:100010000C94FB190C942C1A0C945D1A0C948E1AE7
:100020000C94BF1A0C942E010C942E010C942E01EA
:100030000C942E010C942E010C942E010C942E0184
:100040000C942E010C942E010C942E010C942E0174
:100050000C942E010C942E010C942E010C94F01A89
:100060000C942E010C94CC120C942E010C942E01A5
:100070000C942E010C942E010C942E010C942E0144
:100080000C942E010C942E010C942E010C942E0134
:100090000C94F8120C942E010C942E010C942E0149
:1000A0000C942E010C942E010C942E010C942E0114
:1000B0000C942E010C942E010C942E010C942E0104
:1000C0000C942E010C942E010C942E010C942413EC
:1000D0000C942E010C942E010C9450130C942E01B0
:1000E0000C942E0100002100240027002A002D007E
:1000F0003000330001010000040107010A01000083
:100100002200250028002B002E00310034000201BF
:100110000000050108010B0100002000230026005B
:1001200029002C002F00320000010000030106010D
:10013000090105050505070508080808020202026D
:100140000A0A080804040404010101010101010173
:100150000303030303030303040707070C0C0C0C3E
:100160000C0C0C0C02020202060606060606060627
:100170000B0B0B0B0B0B0B0B0102102020080810B4
:100180002040102040800201020108040201010207
:1001900004081020408080402010080402018004E0
:1001A000020180402010080402010804020101023B
:1001B0000408102040800102040810204080000044
:1001C000090A02080B0C0D070603040100000000D9
:1001D000000000000000000000000000000000001F
:1001E000000000000000000000000000000000000F
:1001F00000000000000000000000000000000000FF
:10020000000000003C08521511241FBECFEFD1E2C0
:10021000DEBFCDBF15E0A0E0B2E0E6E5F9E400E026
:100220000BBF02C007900D92A839B107D9F718E0AB
:10023000A8E9B5E001C01D92AD35B107E1F712E0C4
:10024000C8E0D2E004C02297FE010E94A524C43079
:10025000D107C9F70E942C090C94A9240C94000022
:10026000DF93CF9300D0CDB7DEB79A838983E9813E
:10027000FA8189E894E0918380830F900F90CF9169
:10028000DF910895DF93CF9300D0CDB7DEB79A8387
:100290008983E981FA81848160E00E941A1C81E0EF
:1002A00090E00E94961BE981FA81848161E00E94BE
:1002B0001A1C81E090E00E94961BE981FA818481FA
:1002C00060E00E941A1C84E690E00E94961B0F904A
:1002D0000F90CF91DF910895DF93CF9300D000D09E
:1002E0000F92CDB7DEB79C838B836D831A82198200
:1002F00029C029813A818B819C81820F931FFC0147
:100300003596808161E00E94FA1B29813A818B81B8
:100310009C81820F931FFC01359620818D81882F4F
:1003200090E0098002C0959587950A94E2F7982F8E
:100330009170822F692F0E941A1C89819A810196DF
:100340009A83898389819A818830910594F28B817F
:100350009C810E9442010F900F900F900F900F9080
:10036000CF91DF910895DF93CF9300D000D00F920B
:10037000CDB7DEB79C838B836D831A82198229C027
:1003800029813A818B819C81820F931FFC013596D4
:10039000808161E00E94FA1B29813A818B819C81D6
:1003A000820F931FFC01359620818D81882F90E06C
:1003B000098002C0959587950A94E2F7982F91706D
:1003C000822F692F0E941A1C89819A8101969A8333
:1003D000898389819A818430910594F28B819C81F3
:1003E0000E9442010F900F900F900F900F90CF91AD
:1003F000DF910895DF93CF9300D000D0CDB7DEB763
:100400009A8389836B834C83E981FA8182816C8131
:100410000E941A1CE981FA81838160E00E941A1C03
:10042000E981FA818585882F90E08071907000972E
:1004300031F089819A816B810E946C0116C08B8199
:10044000882F90E0959587959595879595958795B3
:1004500095958795282F89819A81622F0E94B301F3
:1004600089819A816B810E94B3010F900F900F9048
:100470000F90CF91DF910895DF93CF9300D00F922B
:10048000CDB7DEB79A8389836B8389819A816B812B
:1004900041E00E94FA010F900F900F90CF91DF91F1
:1004A0000895DF93CF9300D00F92CDB7DEB79A8334
:1004B00089836B8389819A816B8140E00E94FA0174
:1004C0000F900F900F90CF91DF910895DF93CF930E
:1004D000CDB7DEB727970FB6F894DEBF0FBECDBFFE
:1004E0009C838B836D835F834E838D8187708D8327
:1004F0008D81882F90E0880F991F880F991F880F92
:10050000991F8064282F8B819C81622F0E94510249
:100510001A82198219C0EB81FC810190F081E02DD3
:100520004081518129813A818E819F81FC01E20FB6
:10053000F31F20818B819C81622FFA0109958981AB
:100540009A8101969A83898389819A81883091055D
:1005500014F327960FB6F894DEBF0FBECDBFCF9130
:10056000DF910895DF93CF9300D0CDB7DEB79A83A4
:100570008983E981FA8187858E7FE981FA8187877E
:10058000E981FA818785282F246089819A81622FE9
:100590000E9451020F900F90CF91DF910895DF9349
:1005A000CF9300D0CDB7DEB79A838983E981FA81F2
:1005B00087858160E981FA818787E981FA8187856A
:1005C000282F246089819A81622F0E9451020F9006
:1005D0000F90CF91DF910895DF93CF9300D0CDB7E7
:1005E000DEB79A838983E981FA8187858D7FE981E6
:1005F000FA818787E981FA818785282F246089819C
:100600009A81622F0E9451020F900F90CF91DF913B
:100610000895DF93CF9300D0CDB7DEB79A83898357
:10062000E981FA8187858260E981FA818787E9819A
:10063000FA818785282F246089819A81622F0E9400
:1006400051020F900F90CF91DF910895DF93CF93D8
:1006500000D0CDB7DEB79A83898389819A816CE116
:100660000E9451020F900F90CF91DF910895DF9378
:10067000CF9300D0CDB7DEB79A83898389819A81E1
:1006800068E10E9451020F900F90CF91DF91089581
:10069000DF93CF9300D0CDB7DEB79A838983E9810A
:1006A000FA8186858160E981FA818687E981FA810C
:1006B0008685282F286089819A81622F0E945102A5
:1006C0000F900F90CF91DF910895DF93CF9300D0DB
:1006D000CDB7DEB79A838983E981FA8186858E7FDB
:1006E000E981FA818687E981FA818685282F286049
:1006F00089819A81622F0E9451020F900F90CF91B1
:10070000DF910895DF93CF9300D0CDB7DEB79A8302
:100710008983E981FA8186858260E981FA81868709
:10072000E981FA818685282F286089819A81622F44
:100730000E9451020F900F90CF91DF910895DF93A7
:10074000CF9300D0CDB7DEB79A838983E981FA8150
:1007500086858D7FE981FA818687E981FA818685A0
:10076000282F286089819A81622F0E9451020F9060
:100770000F90CF91DF910895DF93CF9300D0CDB745
:10078000DEB79A838983E981FA8186858460E9816D
:10079000FA818687E981FA818685282F28608981F8
:1007A0009A81622F0E9451020F900F90CF91DF919A
:1007B0000895DF93CF9300D0CDB7DEB79A838983B6
:1007C000E981FA8186858B7FE981FA818687E981D3
:1007D000FA818685282F286089819A81622F0E945C
:1007E00051020F900F90CF91DF910895DF93CF9337
:1007F000CDB7DEB761970FB6F894DEBF0FBECDBFA1
:100800009A8789876B874C87CE0101969E878D8753
:10081000EAE0F2E0F88BEF87F8E0F98BEF85F889F2
:1008200000808F8598890196988B8F87ED85FE854E
:1008300000828D859E8501969E878D87998991502E
:10084000998BE989EE2351F7E985FA8591898C85A1
:10085000981728F4E985FA85818981508C878C85E1
:10086000882F90E09C01220F331FCE010196FC01DE
:10087000E20FF31F80819181982F8B85890F80680B
:10088000282F89859A85622F0E94510261960FB6A2
:10089000F894DEBF0FBECDBFCF91DF910895DF93F7
:1008A000CF9300D0CDB7DEB79A83898389819A81AF
:1008B00062E00E94510280ED97E00E94961B0F902B
:1008C0000F90CF91DF910895DF93CF9300D0CDB7F4
:1008D000DEB79A83898389819A8161E00E945102FF
:1008E00080ED97E00E94961B0F900F90CF91DF91C3
:1008F0000895DF93CF9300D000D00F92CDB7DEB72D
:100900009A8389836B834C832D838C81823038F06A
:10091000E981FA8185858860E981FA818587E981A5
:10092000FA818C81818BE981FA81128A8D818823F9
:1009300051F08C81813039F4E981FA8185858460B8
:10094000E981FA81858780E593EC0E94961BE98115
:10095000FA81828160E00E941A1CE981FA81848117
:1009600060E00E941A1CE981FA81838160E00E94A4
:100970001A1CE981FA818585882F90E0807190703A
:10098000009709F589819A8163E00E94B30184E9A7
:1009900091E10E94961B89819A8163E00E94B301D4
:1009A00084E991E10E94961B89819A8163E00E940B
:1009B000B30186E990E00E94961B89819A8162E0EA
:1009C0000E94B30126C0E981FA818585282F206223
:1009D00089819A81622F0E94510284E991E10E94EB
:1009E000961BE981FA818585282F206289819A8169
:1009F000622F0E94510286E990E00E94961BE981D5
:100A0000FA818585282F206289819A81622F0E9430
:100A10005102E981FA818585282F206289819A8196
:100A2000622F0E945102E981FA8184E086878981E0
:100A30009A810E94BC0389819A810E946404E981A1
:100A4000FA8182E08787E981FA818785282F2460EF
:100A500089819A81622F0E9451020F900F900F900E
:100A60000F900F90CF91DF9108958F92AF92CF9218
:100A7000EF920F93DF93CF93CDB7DEB72A970FB6E0
:100A8000F894DEBF0FBECDBF9A8389836B834C83FE
:100A90002D830E83EF82C886A9868A86E981FA8132
:100AA0008C818283E981FA818D818383E981FA8156
:100AB0008E818483E981FA818F818583E981FA813E
:100AC00088858683E981FA8189858783E981FA812E
:100AD0008A858087E981FA818C898187E981FA8119
:100AE0008D898287E981FA818E898387E981FA81FC
:100AF0008F898487E981FA81828161E00E94FA1BF3
:100B0000E981FA81838161E00E94FA1BE981FA811F
:100B1000848161E00E94FA1B8B81882321F0E981A6
:100B2000FA81158604C0E981FA8180E1858789818F
:100B30009A8160E141E020E00E9479042A960FB694
:100B4000F894DEBF0FBECDBFCF91DF910F91EF9034
:100B5000CF90AF908F9008958F92AF92CF92EF92F7
:100B60000F93DF93CF93CDB7DEB728970FB6F894E6
:100B7000DEBF0FBECDBF9A8389836B834C832D83E9
:100B80000E83EF82C88689819A810E943001E981B3
:100B9000FA8184E092E09183808300D000D0EDB7A9
:100BA000FEB7319689819A81108211821282138256
:100BB00061E04B812FEF0C81ED80CE80AF80888487
:100BC0000E9435050F900F900F900F9028960FB64A
:100BD000F894DEBF0FBECDBFCF91DF910F91EF90A4
:100BE000CF90AF908F9008958F92AF92CF92EF9267
:100BF0000F93DF93CF93CDB7DEB728970FB6F89456
:100C0000DEBF0FBECDBF9A8389836B834C832D8358
:100C10000E83EF82C88689819A810E943001E98122
:100C2000FA8184E092E09183808300D000D0EDB718
:100C3000FEB7319689819A811082118212821382C5
:100C400061E04B812FEF0C81ED80CE80AF808884F6
:100C50000E9435050F900F900F900F9028960FB6B9
:100C6000F894DEBF0FBECDBFCF91DF910F91EF9013
:100C7000CF90AF908F9008958F92AF92CF92EF92D6
:100C80000F93DF93CF93CDB7DEB729970FB6F894C4
:100C9000DEBF0FBECDBF9A8389836B834C832D83C8
:100CA0000E83EF82C886A98689819A810E943001CD
:100CB000E981FA8184E092E09183808300D000D0C2
:100CC000EDB7FEB7319689819A8110821182128226
:100CD000138261E04B812C810D81EE80CF80A8844E
:100CE00089840E9435050F900F900F900F902996E0
:100CF0000FB6F894DEBF0FBECDBFCF91DF910F913D
:100D0000EF90CF90AF908F9008958F92AF92CF9247
:100D1000EF920F93DF93CF93CDB7DEB729970FB63E
:100D2000F894DEBF0FBECDBF9A8389836B834C835B
:100D30002D830E83EF82C886A98689819A810E94BD
:100D40003001E981FA8184E092E09183808300D0D0
:100D500000D0EDB7FEB7319689819A811082118259
:100D60001282138261E04B812C810D81EE80CF8055
:100D7000A88489840E9435050F900F900F900F90E2
:100D800029960FB6F894DEBF0FBECDBFCF91DF918D
:100D90000F91EF90CF90AF908F9008958F92AF9278
:100DA000CF92EF920F93DF93CF93CDB7DEB72A9711
:100DB0000FB6F894DEBF0FBECDBF9A8389836B83D5
:100DC0004C832D830E83EF82C886A9868A8689810B
:100DD0009A810E943001E981FA8184E092E0918356
:100DE000808300D000D0EDB7FEB7319629813A81DB
:100DF000898580838A8581838C8982838D89838399
:100E0000C90160E04B812FEF0C81ED80CE80AF8077
:100E100088840E9435050F900F900F900F902A96AE
:100E20000FB6F894DEBF0FBECDBFCF91DF910F910B
:100E3000EF90CF90AF908F9008958F92AF92CF9216
:100E4000EF920F93DF93CF93CDB7DEB72A970FB60C
:100E5000F894DEBF0FBECDBF9A8389836B834C832A
:100E60002D830E83EF82C886A9868A8689819A811E
:100E70000E943001E981FA8184E092E091838083CD
:100E800000D000D0EDB7FEB7319629813A8189852F
:100E900080838A8581838C8982838D898383C9013C
:100EA00060E04B812FEF0C81ED80CE80AF80888495
:100EB0000E9435050F900F900F900F902A960FB655
:100EC000F894DEBF0FBECDBFCF91DF910F91EF90B1
:100ED000CF90AF908F9008958F92AF92CF92EF9274
:100EE0000F93DF93CF93CDB7DEB72A970FB6F89461
:100EF000DEBF0FBECDBF9A8389836B834C832D8366
:100F00000E83EF82C886A9868A8689819A810E948B
:100F10003001E981FA8184E092E09183808300D0FE
:100F200000D0EDB7FEB7319629813A818A8580835A
:100F30008C8981838D8982838E898383C90160E056
:100F40004B812C810D81EE80CF80A88489840E9402
:100F500035050F900F900F900F902A960FB6F894CA
:100F6000DEBF0FBECDBFCF91DF910F91EF90CF903D
:100F7000AF908F9008958F92AF92CF92EF920F9390
:100F8000DF93CF93CDB7DEB72A970FB6F894DEBFC5
:100F90000FBECDBF9A8389836B834C832D830E83D1
:100FA000EF82C886A9868A8689819A810E9430014B
:100FB000E981FA8184E092E09183808300D000D0BF
:100FC000EDB7FEB7319629813A818A8580838C8975
:100FD00081838D8982838E898383C90160E04B81FF
:100FE0002C810D81EE80CF80A88489840E943505F4
:100FF0000F900F900F900F902A960FB6F894DEBFC7
:101000000FBECDBFCF91DF910F91EF90CF90AF90FA
:101010008F900895CF92EF920F93DF93CF9300D0EC
:1010200000D0CDB7DEB79A8389837C836B838981B7
:101030009A8181309105B1F48B819C812FEF8F3F94
:10104000920781F488E995E06AE049E028E007E04A
:101050000F2EF6E0EF2EF02D0F2EF5E0CF2EF02D17
:101060000E94AC050F900F900F900F90CF91DF91E1
:101070000F91EF90CF900895DF93CF93CDB7DEB768
:1010800081E090E06FEF7FEF0E940A08CF91DF913F
:101090000895DF93CF9300D00F92CDB7DEB71982BA
:1010A0000E942C0B8BE30E94831C1B82009711F083
:1010B00081E08B838DE30E94831C1A82009711F0DC
:1010C00081E08A838CE30E94831C1982009711F0CF
:1010D00081E089838B8191E089278823E9F48981E4
:1010E00091E089278823C1F488EF97E022E132E07C
:1010F000B9010E94DB1788E995E060E041E00E94B9
:10110000F60388E995E024E232E0B9010E9459161D
:1011100086E00E944C0950C08B818823C1F088EF83
:1011200097E02CE232E0B9010E94DB1788E995E0F4
:1011300060E041E00E94F60388E995E021E432E0B6
:10114000B9010E94591682E00E944C0935C089817C
:101150008823C1F088EF97E02CE432E0B9010E94C7
:10116000DB1788E995E060E041E00E94F60388E93A
:1011700095E02FE532E0B9010E94591681E00E9406
:101180004C091AC08A818823B9F088EF97E029E6D4
:1011900032E0B9010E94DB1788E995E060E041E0A8
:1011A0000E94F60388E995E028E732E0B9010E9441
:1011B000591685E00E944C0968EC70E080E090E0F0
:1011C0000E946C1B0F900F900F90CF91DF910895AC
:1011D000DF93CF93CDB7DEB788E995E060E142E0D9
:1011E00020E00E94790488E995E02DE732E0B9011A
:1011F0000E9459160E949D0C88E995E02BE832E088
:10120000B9010E945916789488EF97E040E855E2BA
:1012100060E070E00E94DC138AE361E00E94FA1B48
:101220008BE360E00E94FA1B8CE360E00E94FA1BF3
:101230008DE360E00E94FA1B8AE361E00E941A1CC1
:1012400088E995E02AE932E0B9010E9459160E9426
:101250006009CF91DF910895DF93CF93CDB7DEB7CB
:101260000E94A01B0E94E8080E944908FDCFDF935E
:10127000CF930F92CDB7DEB789838BEA95E00E94BA
:10128000820E88EF97E024EB35E0B9010E945916F1
:101290000F90CF91DF910895DF93CF930F92CDB749
:1012A000DEB789831092AB0589818093AE058BEA06
:1012B00095E060E00E9407110F90CF91DF910895B3
:1012C000DF93CF93CDB7DEB70E94480F29EA32E013
:1012D00080E0B90141E00E94001081E063E00E94DB
:1012E000CC0F8EEA92E00E94FD0DCF91DF91089520
:1012F000DF93CF9300D000D0CDB7DEB78C83809141
:10130000CD059091CE05A091CF05B091D005009765
:10131000A105B105D9F18091D1059091D20503972E
:101320009B838A838091CC0560E00E941A1C8A818D
:101330009B810E94961B81E089831CC08C81282F91
:1013400030E08981882F90E082239323009731F049
:101350008091CC0561E00E941A1C05C08091CC05EB
:1013600060E00E941A1C8A819B810E94961B8981E1
:10137000880F89838981882309F78091CC0561E0F2
:101380000E941A1C8A819B810E94961B0F900F90CD
:101390000F900F90CF91DF910895DF93CF930F922D
:1013A000CDB7DEB789838FE60E94780965E070E0EB
:1013B00080E090E00E946C1B89818F5B0E9478091D
:1013C00065E070E080E090E00E946C1B0F90CF9190
:1013D000DF910895DF93CF930F92CDB7DEB7898366
:1013E00084E60E94780965E070E080E090E00E9469
:1013F0006C1B89818F5B0E9478090F90CF91DF91E0
:101400000895DF93CF93CDB7DEB780E895E2A0E0F3
:10141000B0E08093CD059093CE05A093CF05B09317
:10142000D0052091CD053091CE054091CF0550914A
:10143000D00580E492E4AFE0B0E0BC01CD010E94B1
:101440003D24DA01C9019093D2058093D1058CE047
:101450008093CB058DE08093CC058091CC0561E035
:101460000E941A1C8091D1059091D2050E94961B72
:10147000CF91DF910895DF93CF93CDB7DEB72A9751
:101480000FB6F894DEBF0FBECDBF1D828091D1058F
:101490009091D20506979C838B838091CB050E9407
:1014A000831C1886009711F081E08887988599231E
:1014B000A1F78091CB050E94831C1F82009711F435
:1014C00081E08F839F819923E1F18B819C819A87B1
:1014D000898789859A8599232CF489859A8501962F
:1014E0009A87898789859A859595879503970E941C
:1014F000961B1A82198217C08B819C810E94961BB1
:101500008091CB050E94831C098002C0880F991F1F
:101510000A94E2F7982F8D81892B8D8389819A8196
:1015200001969A83898389819A818830910524F371
:101530008091D1059091D2050E94961B9D819E833A
:1015400002C08FEF8E838E812A960FB6F894DEBF8D
:101550000FBECDBFCF91DF910895DF93CF9300D021
:10156000CDB7DEB70E943B0A89838981833719F0A2
:101570008981823771F465E070E080E090E00E943C
:101580006C1B80E20E9478090E943B0A81548A8386
:1015900008C08981843719F48FEF8A8302C08EEFE7
:1015A0008A838A810F900F90CF91DF910895DF9306
:1015B000CF9300D00F92CDB7DEB789838CE60E941F
:1015C000780965E070E080E090E00E946C1B898102
:1015D0008F5B0E9478090E943B0A1B828F3611F4B0
:1015E00081E08B838B81882319F08FEF8A8301C080
:1015F0001A828A810F900F900F90CF91DF910895FA
:10160000DF93CF9300D00F92CDB7DEB7198219C008
:1016100064E670E080E090E00E946C1B82E60E942D
:1016200078090E943B0A1B828F3611F481E08B837C
:101630008B81882319F08FEF8A8307C089818F5FA0
:1016400089838981853020F31A828A810F900F90D7
:101650000F90CF91DF910895DF93CF9300D000D00A
:10166000CDB7DEB788EF97E023EB32E0B9010E94F7
:10167000DB1788E995E00E94640488E995E060E062
:1016800040E00E94F60388E995E025EC32E0B901DC
:101690000E94591680E00E94EA090E94AD0A99272B
:1016A00087FD90959A83898389819A812FEF8F3F57
:1016B000920741F488EF97E026ED32E0B9010E94ED
:1016C000DB1734C189819A812FEF8E3F9207A9F4ED
:1016D00088E995E060E041E00E94F60388E995E042
:1016E0002EED32E0B9010E94591688EF97E024EE02
:1016F00032E0B9010E94DB1719C188EF97E022EFB1
:1017000032E0B9010E94DB1788EF97E02AEF32E060
:10171000B9010E94DB1788E995E00E94640488E91A
:1017200095E060E040E00E94F60388E995E029E05A
:1017300033E0B9010E94591680E00E944C0981E013
:101740000E94EA090E94AD0A992787FD90959A8325
:10175000898389819A819C838B838B819C81813051
:10176000910509F46FC08B819C8182309105ACF4A6
:101770008B819C812FEF8F3F9207B9F18B819C81E8
:101780002FEF8F3F920711F00CF044C08B819C81AA
:101790002FEF8E3F9207A1F0B5C08B819C818330E3
:1017A000910509F47FC08B819C81833091050CF4F5
:1017B00061C08B819C818430910509F48BC0A2C0EB
:1017C00088E995E060E041E00E94F60388E995E051
:1017D0002EED32E0B9010E94591688EF97E02EED08
:1017E00032E0B9010E94DB17A1C088E995E060E012
:1017F00041E00E94F60388E995E026ED32E0B90168
:101800000E94591688EF97E026ED32E0B9010E9458
:10181000DB178CC088EF97E022E133E0B9010E942A
:10182000DB1788E995E060E041E00E94F60388E973
:1018300095E025E233E0B9010E94591681E00E944B
:101840004C0974C088EF97E02FE233E0B9010E94A1
:10185000DB1788E995E060E041E00E94F60388E943
:1018600095E024E433E0B9010E94591682E00E9419
:101870004C095CC088EF97E02FE433E0B9010E9487
:10188000DB1788E995E060E041E00E94F60388E913
:1018900095E02EE533E0B9010E94591685E00E94DB
:1018A0004C0944C088EF97E023E633E0B9010E9479
:1018B000DB1788E995E060E041E00E94F60388E9E3
:1018C00095E025E733E0B9010E94591686E00E94B1
:1018D0004C092CC088EF97E02DE733E0B9010E9456
:1018E000DB1788E995E060E041E00E94F60388E9B3
:1018F00095E02FE833E0B9010E94591687E00E9475
:101900004C0914C088E995E060E041E00E94F603CC
:1019100088E995E027E933E0B9010E94591688EF7C
:1019200097E021EA33E0B9010E94DB170F900F9096
:101930000F900F90CF91DF910895DF93CF9300D058
:1019400000D000D0CDB7DEB780E060E00E94FA1B87
:1019500081E061E00E94FA1B8CE060E00E94FA1BCB
:101960008DE061E00E94FA1B82E060E00E94FA1BB9
:1019700083E061E00E94FA1B84E061E00E94FA1BB0
:1019800083E061E00E941A1C84E060E00E941A1C5F
:1019900082E00E94831C1E82009711F481E08E83F6
:1019A0008E81882311F188E995E060E041E00E9492
:1019B000F60388E995E022EB33E0B9010E9459165D
:1019C00080E00E94831C9C838B839B818DE0692F28
:1019D0000E941A1C8CE00E94831C9A83898399813F
:1019E00081E0692F0E941A1CEBCF88EF97E040E856
:1019F00055E260E070E00E94DC1368EC70E080E08B
:101A000090E00E946C1B88EF97E02EEB33E0B90169
:101A10000E94DB1788EF97E021EE33E0B9010E94C6
:101A2000DB1788E995E00E94640488E995E060E0AE
:101A300040E00E94F60388E995E02DEE33E0B9011D
:101A40000E9459160E94010A88E995E00E946404E8
:101A500088E995E060E040E00E94F60388E995E0BF
:101A600029EF33E0B9010E9459160E94000B1D8234
:101A7000882311F481E08D838D81882341F088EFE4
:101A800097E026E034E0B9010E94DB171BC088EF25
:101A900097E02FE034E0B9010E94DB1788EF97E070
:101AA0002EE134E0B9010E94DB1785E00E94CD09E8
:101AB00088EF97E02CE334E0B9010E94DB1780E067
:101AC0000E94D70A88E995E060E040E00E94F603B2
:101AD00088E995E029E534E0B9010E945916269677
:101AE0000FB6F894DEBF0FBECDBFCF91DF91089542
:101AF000DF93CF9300D00F92CDB7DEB7809166040D
:101B0000909167049B838A8319820FC08A819B818D
:101B100081709070882319F089818F5F89838A8111
:101B20009B81969587959B838A838A819B81009769
:101B300069F78981282F30E080E190E0AC01421BF9
:101B4000530B9A0184E690E0AC01249FC001259FCD
:101B5000900D349F900D11249B838A838A819B81F1
:101B6000929582958F7089279F7089279B838A839E
:101B70008A810F900F900F90CF91DF910895DF939E
:101B8000CF930F92CDB7DEB719828AE260E00E9450
:101B90001A1C8FEF0E94651289838AE261E00E941D
:101BA0001A1C89810F90CF91DF910895DF93CF9315
:101BB00000D000D00F92CDB7DEB78A837C836B83D1
:101BC0004D838AE260E00E941A1C8A818F718062D4
:101BD0000E94651289838B819C816D810E943312E2
:101BE0008AE261E00E941A1C89810F900F900F9089
:101BF0000F900F90CF91DF910895DF93CF9300D096
:101C0000CDB7DEB79A838983E981FA818081809399
:101C10006F0489819A81FC013196808180937004E0
:101C200089819A81FC013296808180937104898137
:101C30009A81FC01339680818093720489819A8114
:101C4000FC01349680818093730429813A8180E17C
:101C5000B90145E00E94D60D0F900F90CF91DF9112
:101C60000895DF93CF930F92CDB7DEB780916904CB
:101C700089838981882311F081E089838981882380
:101C800039F024E734E08AE0B90145E00E94D60D3E
:101C90000F90CF91DF910895DF93CF9300D000D0C4
:101CA00000D0CDB7DEB789837B836A835D834C83A5
:101CB0002E838AE260E00E941A1C89810E946512CC
:101CC0008E81882391F08C819D81009731F48A81E7
:101CD0009B816E810E94331208C08A819B812C8176
:101CE0003D81B9014E810E94EF118AE261E00E94BC
:101CF0001A1C26960FB6F894DEBF0FBECDBFCF914B
:101D0000DF910895DF93CF93CDB7DEB728970FB655
:101D1000F894DEBF0FBECDBF9F838E8380E28D839C
:101D200081E08A831092E7058BE260E00E941A1C32
:101D30000E94BF0D8C838C81882F90E08E709070F4
:101D4000959587958B838B81873019F482E0898301
:101D50001A828B81882F90E0FC01E759FB4F90811C
:101D600018868D81891710F481E0888788858823FB
:101D700011F019821A828A81882319F12E813F81FC
:101D80004E815F818B81882F90E0FC01E759FB4FEA
:101D9000908181E6B901292F0E944C0E0E94BF0D4F
:101DA0008C838C81882F90E08E70907095958795AC
:101DB0008B838B81873019F083E0898302C084E0B4
:101DC00089838BE261E00E941A1C1092E7058981E9
:101DD00028960FB6F894DEBF0FBECDBFCF91DF912E
:101DE0000895DF93CF930F92CDB7DEB70E94821292
:101DF00083E0898383E09E012F5F3F4FB90141E07B
:101E00000E94D60D85E1898384E09E012F5F3F4FBC
:101E1000B90141E00E94D60D80E7898385E09E01EB
:101E20002F5F3F4FB90141E00E94D60D89E08983C1
:101E300086E09E012F5F3F4FB90141E00E94D60D21
:101E40008FE0898380E09E012F5F3F4FB90141E021
:101E50000E94D60D80E7898387E09E012F5F3F4F68
:101E6000B90141E00E94D60D81EE60E070E040E0F3
:101E700050E020E00E944C0E82EE60E070E040E016
:101E800050E020E00E944C0E0F90CF91DF9108951A
:101E9000DF93CF93CDB7DEB780E361E00E94FA1BFA
:101EA00080E360E00E941A1C62E370E080E090E052
:101EB0000E946C1B80E361E00E941A1C62E370E0E8
:101EC00080E090E00E946C1B1092E7058BE260E0DE
:101ED0000E941A1C8BE261E00E94FA1B8AE261E018
:101EE0000E94FA1B29E731E184E0B90140E050E0AB
:101EF0000E94C0186BE070E080E090E00E946C1BD4
:101F00000E94F10E62E070E080E090E00E946C1BA5
:101F10008BE261E00E941A1CCF91DF910895DF935C
:101F2000CF9300D000D000D0CDB7DEB78B837D83B8
:101F30006C834E8319820DC08981282F30E08C81FB
:101F40009D81FC01E20FF31F8FEF808389818F5FFA
:101F5000898399818E81981778F38AE260E00E94E4
:101F60001A1C8B818F710E9465128A832C813D819E
:101F700080E090E0B9014E810E94EF118AE261E0B9
:101F80000E941A1C8A8126960FB6F894DEBF0FBEF7
:101F9000CDBFCF91DF910895DF93CF9300D00F9203
:101FA000CDB7DEB78A836B8386E09E012F5F3F4FFC
:101FB000B90141E00E948F0F8981866089838B81FE
:101FC000882F90E0880F991F982F89818923898312
:101FD0008A81882321F089818860898303C089816F
:101FE000877F898386E09E012F5F3F4FB90141E0E3
:101FF0000E94D60D0F900F900F90CF91DF91089512
:10200000DF93CF93CDB7DEB72A970FB6F894DEBF34
:102010000FBECDBF8C837E836D834F8381E08A8327
:1020200080E289838981882309F4BDC08981813256
:1020300008F0B9C08C81863008F0B5C08C81882347
:1020400009F5ED81FE818081809374048D819E81EC
:10205000FC0131968081809375048D819E81FC0105
:1020600032968081809376048D819E81FC01339627
:102070008081809377048D819E81FC0134968081DC
:10208000809378048C81982F965F9A878C81823018
:1020900018F081E0898702C095E099872D813E8103
:1020A0008A85B90149850E94D60D9E012D5F3F4F5B
:1020B00081E0B90141E00E948F0F8A81882381F07D
:1020C0008C81282F30E081E090E0022E02C0880F42
:1020D000991F0A94E2F7982F8B81892B8B830FC06D
:1020E0008C81282F30E081E090E002C0880F991F9A
:1020F0002A95E2F7982F90958B8189238B839E01F7
:102100002D5F3F4F81E0B90141E00E94D60D8F81E4
:10211000882319F08981888701C0188698859B8358
:102120008C818F5E9E012D5F3F4FB90141E00E947F
:10213000D60D8C81882F90E02B81FC01E759FB4F55
:1021400020839E012D5F3F4F82E0B90141E00E9454
:102150008F0F8F81882381F08C81282F30E081E0E0
:1021600090E0022E02C0880F991F0A94E2F7982F80
:102170008B81892B8B830FC08C81282F30E081E0ED
:1021800090E002C0880F991F2A95E2F7982F90954A
:102190008B8189238B839E012D5F3F4F82E0B901A4
:1021A00041E00E94D60D2A960FB6F894DEBF0FBE0E
:1021B000CDBFCF91DF910895DF93CF930F92CDB72D
:1021C000DEB780E09E012F5F3F4FB90141E00E94E2
:1021D0008F0F8981882F90E081709070882399F00B
:1021E00089818E7F898380E09E012F5F3F4FB901F7
:1021F00041E00E94D60D81E490E00E94961B81E4AC
:1022000090E00E94961B0F90CF91DF910895DF938D
:10221000CF9300D000D000D0CDB7DEB79B838A83A8
:102220006C8380E2898381E08093E7058BE260E044
:102230000E941A1C0E94DC102FE634E08AE0B901EB
:1022400045E00E94D60D2A813B8180EAB90140E039
:1022500050E029810E944C0E8BE261E00E941A1C22
:102260008C81882379F48091E7058E838E81882381
:1022700011F081E08E838E818823A9F78091680414
:102280008D8302C081E08D838D8126960FB6F894F0
:10229000DEBF0FBECDBFCF91DF910895DF93CF9307
:1022A0000F92CDB7DEB780E09E012F5F3F4FB9019F
:1022B00041E00E948F0F8981882F90E0817090709B
:1022C000009799F489818160898380E09E012F5F66
:1022D0003F4FB90141E00E94D60D81E490E00E9499
:1022E000961B81E490E00E94961B0F90CF91DF91A6
:1022F0000895DF93CF9300D0CDB7DEB78BE260E0D7
:102300000E941A1C0E94BF0D8A838A81882F90E048
:1023100080749070009759F08A81882F90E08E70B9
:10232000907095958795898389810E9437098A8164
:10233000882F90E0807290700097E9F01092E70586
:102340000E94310E0E944E118091660490916704A4
:10235000880F991F909367048093660480916604A8
:10236000909167048160909367048093660481E094
:102370008093680421C08A81882F90E080719070DA
:102380000097D1F081EE60E070E040E050E020E0A6
:102390000E944C0E1092E7050E94310E0E944E11D1
:1023A0008091660490916704880F991F9093670449
:1023B000809366041092680480E78A839E012E5FF2
:1023C0003F4F87E0B90141E00E94D60D8BE261E00A
:1023D0000E941A1C0F900F90CF91DF910895DF9308
:1023E000CF93CDB7DEB727970FB6F894DEBF0FBEF9
:1023F000CDBF9B838A837D836C834E83198226C0E5
:10240000AEE4B0E08981282F30E08A819B81FC0115
:10241000E20FF31F80818C93EDE4F0E080811F8256
:10242000882314F081E08F838F818823A9F7898125
:10243000282F30E08C819D81DC01A20FB31FEEE4D8
:10244000F0E080818C9389818F5F898399818E816F
:102450009817B0F227960FB6F894DEBF0FBECDBF27
:10246000CF91DF910895DF93CF9300D000D00F92EA
:10247000CDB7DEB79B838A836C8319821AC0AEE422
:10248000B0E08981282F30E08A819B81FC01E20F36
:10249000F31F80818C93EDE4F0E080811D8288231E
:1024A00014F081E08D838D818823A9F789818F5F66
:1024B000898399818C81981710F30F900F900F905A
:1024C0000F900F90CF91DF910895DF93CF9300D0BD
:1024D000CDB7DEB78983EEE4F0E089818083EDE457
:1024E000F0E080811A82882314F081E08A838A8157
:1024F0008823A9F7EEE4F0E080810F900F90CF9150
:10250000DF910895DF93CF93CDB7DEB783E361E02A
:102510000E94FA1B82E360E00E94FA1B84E361E000
:102520000E94FA1B85E361E00E94FA1B85E361E0EB
:102530000E941A1CECE4F0E080E5808385E360E013
:102540000E941A1CCF91DF9108950F931F93CF9390
:10255000DF93482FFB018B0100581F4FD801CD910D
:10256000DC91CE01019660E870E00E9408249C0195
:10257000EE57FF4F80819181E258F04028173907CC
:1025800031F0CE0FDF1F4883F80131832083DF91C4
:10259000CF911F910F9108951F920F920FB60F9236
:1025A0000BB60F9211242F933F934F935F936F932A
:1025B0007F938F939F93AF93BF93EF93FF938091FC
:1025C000C60068EE75E00E94A512FF91EF91BF91E1
:1025D000AF919F918F917F916F915F914F913F91BB
:1025E0002F910F900BBE0F900FBE0F901F9018955C
:1025F0001F920F920FB60F920BB60F9211242F93CA
:102600003F934F935F936F937F938F939F93AF937A
:10261000BF93EF93FF938091CE006CE676E00E942B
:10262000A512FF91EF91BF91AF919F918F917F91F3
:102630006F915F914F913F912F910F900BBE0F9033
:102640000FBE0F901F9018951F920F920FB60F920A
:102650000BB60F9211242F933F934F935F936F9379
:102660007F938F939F93AF93BF93EF93FF9380914B
:10267000D60060EF76E00E94A512FF91EF91BF9126
:10268000AF919F918F917F916F915F914F913F910A
:102690002F910F900BBE0F900FBE0F901F901895AB
:1026A0001F920F920FB60F920BB60F9211242F9319
:1026B0003F934F935F936F937F938F939F93AF93CA
:1026C000BF93EF93FF938091360164E777E00E9418
:1026D000A512FF91EF91BF91AF919F918F917F9143
:1026E0006F915F914F913F912F910F900BBE0F9083
:1026F0000FBE0F901F9018958F92AF92CF92DF92DE
:10270000EF92FF920F931F93DF93CF93CDB7DEB776
:10271000FC018DE794E0918380837383628355830A
:1027200044833783268311870087F386E286D58624
:10273000C486A68687868D85808B8E85818B8F85C6
:10274000828BCF91DF911F910F91FF90EF90DF90DF
:10275000CF90AF908F9008958F92AF92CF92DF92EB
:10276000EF92FF920F931F93DF93CF93CDB7DEB716
:10277000FC018DE794E091838083738362835583AA
:1027800044833783268311870087F386E286D586C4
:10279000C486A68687868D85808B8E85818B8F8566
:1027A000828BCF91DF911F910F91FF90EF90DF907F
:1027B000CF90AF908F9008955F926F927F928F929B
:1027C0009F92AF92BF92CF92DF92EF92FF920F93C0
:1027D0001F93CF93DF93EC015A016B0181E4A8169C
:1027E00082E4B8068FE0C80680E0D80608F077C01B
:1027F00060E874E88EE190E0A60195010E941B2438
:1028000039014A0108946108710881089108969479
:10281000879477946794A40193012F5F3F4F4F4FA4
:102820005F4F74E0220F331F441F551F7A95D1F775
:1028300060E074E284EF90E00E941B24CA01B901B9
:102840002FEF30E040E050E00E94E923A60195011F
:102850000E941B248FEF90E0821B930B1816190621
:102860001CF4522E509402C0522E539460E079E032
:102870008DE390E0A60195010E941B242150304079
:102880004040504056954795379527952F5F3F4FCD
:102890004F4F5F4F93E0220F331F441F551F9A95F0
:1028A000D1F760E074E284EF90E00E941B24CA013B
:1028B000B9012FEF30E040E050E00E94E923A6018B
:1028C00095010E941B248FEF90E0821B930B18163A
:1028D000190614F4209501C02F5F2515F0F4E88542
:1028E000F98581E090E00A8802C0880F991F0A9458
:1028F000E2F7808360E079E08DE390E0A601950146
:102900000E941B242150304040405040569547952E
:1029100037952795822F232F05C0E885F9851082EA
:10292000862D272DEC81FD812083EE81FF81808320
:10293000EA85FB85208141E050E0CA010E8402C097
:10294000880F991F0A94E2F7282B2083EA85FB85DC
:102950002081CA010F8402C0880F991F0A94E2F7F0
:10296000282B2083EA85FB858081088802C0440FDC
:10297000551F0A94E2F7842B8083DF91CF911F913A
:102980000F91FF90EF90DF90CF90BF90AF909F900E
:102990008F907F906F905F900895FC01A285B38522
:1029A0004C9121E030E0C901068402C0880F991FD4
:1029B0000A94E2F7809584238C93A285B3854C9189
:1029C000C901078402C0880F991F0A94E2F7809515
:1029D00084238C93A285B3858C91008802C0220F3A
:1029E000331F0A94E2F7209528232C930895DC01E5
:1029F0001296ED91FC911397E058FF4F81919191C0
:102A000080589F4F20813181821B930B60E870E0DA
:102A10000E9408240895CF93DF93DC011296ED9174
:102A2000FC911397EF01CE57DF4F48815981E05851
:102A3000FF4F80819181E058F0408417950719F489
:102A40002FEF3FEF0CC0E40FF51F2081CA01019664
:102A500060E870E00E9408249983888330E0C9010F
:102A6000DF91CF910895DC011296ED91FC911397BF
:102A7000EE57FF4F80819181929382930895FC01DC
:102A8000A085B18521898C9190E0022E02C0959598
:102A900087950A94E2F780FFF6CF0484F585E02D50
:102AA000608308952DE734E03093F9072093F80709
:102AB00088EE95E09093FB078093FA0785EC90E011
:102AC0009093FD078093FC0784EC90E09093FF07C0
:102AD0008093FE0780EC90E09093010880930008BB
:102AE00081EC90E0909303088093020886EC90E0DC
:102AF0009093050880930408E4E0E093060873E0EF
:102B00007093070867E06093080855E05093090840
:102B100041E040930A0830930C0820930B088CE6A0
:102B200096E090930E0880930D088DEC90E09093C2
:102B3000100880930F088CEC90E09093120880931B
:102B4000110888EC90E0909314088093130889ECA6
:102B500090E090931608809315088EEC90E0909387
:102B6000180880931708E093190870931A08609367
:102B70001B0850931C0840931D0830931F08209396
:102B80001E0880EF96E0909321088093200885ED41
:102B900090E0909323088093220884ED90E0909336
:102BA00025088093240880ED90E090932708809377
:102BB000260881ED90E0909329088093280886EDFF
:102BC00090E090932B0880932A08E0932C08709350
:102BD0002D0860932E0850932F08409330083093AF
:102BE00032082093310884E797E09093340880936B
:102BF000330885E391E0909336088093350884E3A9
:102C000091E0909338088093370880E391E09093A7
:102C10003A088093390881E391E090933C088093CF
:102C20003B0886E391E090933E0880933D08E09353
:102C30003F087093400860934108509342084093C6
:102C4000430808950F931F93CF93DF938C01EB01FB
:102C500009C02196D801ED91FC910190F081E02D01
:102C6000C801099568816623A1F7DF91CF911F9173
:102C70000F910895EF92FF920F931F93CF93DF93DD
:102C80008C017B01EA010CC0D7016D917D01D80157
:102C9000ED91FC910190F081E02DC80109952197FB
:102CA000209791F7DF91CF911F910F91FF90EF90B7
:102CB0000895DC01ED91FC910280F381E02D0995EE
:102CC00008952F923F924F925F926F927F928F92D0
:102CD0009F92AF92BF92CF92DF92EF92FF920F93AB
:102CE0001F93DF93CF93CDB7DEB7A0970FB6F894BD
:102CF000DEBF0FBECDBF1C016A017B01411551052E
:102D00006105710549F440E350E060E070E020E0C7
:102D100030E00E942B1754C0882499245401422E7D
:102D200055246624772401E010E00C0F1D1F080DC8
:102D3000191DC701B601A30192010E941B24F801CD
:102D400060830894811C911CA11CB11CC701B601B1
:102D5000A30192010E941B24C901DA016C017D01CB
:102D6000C114D104E104F104F1F681E0E82EF12C64
:102D7000EC0EFD1EE80CF91C3E010894611C711C50
:102D8000D501C4010197A109B1096C01C818D9087E
:102D900014C0F601EE0DFF1D40814A3010F4405D75
:102DA00001C0495C50E060E070E0C10120E030E02B
:102DB0000E942B170894E108F1086E147F0449F76C
:102DC000A0960FB6F894DEBF0FBECDBFCF91DF91B6
:102DD0001F910F91FF90EF90DF90CF90BF90AF9039
:102DE0009F908F907F906F905F904F903F902F902B
:102DF0000895DC012115310541F4ED91FC9101901C
:102E0000F081E02D642F099508950E9461160895C0
:102E1000EF92FF920F931F939A017B0100E010E065
:102E2000B801A7010E94F9161F910F91FF90EF9032
:102E30000895EF92FF920F931F939A01E62EFF24BD
:102E400000E010E0B801A7010E94F9161F910F9150
:102E5000FF90EF900895EF92FF920F931F93CF93FF
:102E6000DF93EC017A018B012115310541F4E881F2
:102E7000F9810190F081E02D642F09951BC02A3063
:102E80003105B1F477FF10C04DE250E060E070E032
:102E900020E030E00E942B1710950095F094E0940C
:102EA000E11CF11C011D111DCE01B801A7012AE092
:102EB0000E946116DF91CF911F910F91FF90EF90CB
:102EC0000895EF92FF920F931F937B019A010027C1
:102ED000F7FC0095102FB801A7010E942B171F9136
:102EE0000F91FF90EF900895EF92FF920F931F9331
:102EF0009A01E62EFF2400E010E0B801A7010E942D
:102F00002B171F910F91FF90EF9008950F931F9330
:102F10008C014DE050E060E070E020E030E00E9485
:102F20002B17C8014AE050E060E070E020E030E09C
:102F30000E942B171F910F9108950F931F938C01DF
:102F40000E94F916C8010E9486171F910F910895DB
:102F5000CF92DF92EF92FF920F931F938C019A0111
:102F60006B01EE24FF24B701A6010E94F916C801E7
:102F70000E9486171F910F91FF90EF90DF90CF90E6
:102F80000895CF92DF92EF92FF920F931F938C01DF
:102F90009A01C62EDD24EE24FF24B701A6010E946B
:102FA000F916C8010E9486171F910F91FF90EF90AC
:102FB000DF90CF9008950F931F938C010E945916B4
:102FC000C8010E9486171F910F9108950F931F93B8
:102FD0008C010E942B17C8010E9486171F910F9128
:102FE0000895CF92DF92EF92FF920F931F938C017F
:102FF0006B019A01EE24D7FCE094FE2CB701A601E8
:103000000E942B17C8010E9486171F910F91FF90F5
:10301000EF90DF90CF900895CF92DF92EF92FF92E2
:103020000F931F938C019A01C62EDD24EE24FF24FA
:10303000B701A6010E942B17C8010E9486171F9195
:103040000F91FF90EF90DF90CF9008959F92AF92F5
:10305000BF92CF92DF92EF92FF920F931F93CF9385
:10306000DF93EC017A018B01922ECB01BA0120E0B3
:1030700030E040E050E00E94992088236CF4CE01BB
:103080004DE250E060E070E020E030E00E942B175D
:1030900017FB109517F9109520E030E040E05FE352
:1030A000AA240BC0CA01B90120E030E040E251E49B
:1030B0000E94BD1F9B01AC01A394A91498F3C80101
:1030C000B7010E94961E5B016C010E94ED1C7B0102
:1030D0008C01CE01B801A7012AE030E00E94F91668
:1030E000992029F0CE0163E874E00E945916C801C6
:1030F000B7010E947B219B01AC01C601B5010E9472
:10310000651E22C020E030E040E251E40E94C31E70
:103110007B018C010E9427215B016C01CC24B7FC50
:10312000C094DC2CCE01B601A5012AE030E00E945B
:103130002B17C601B5010E94C9209B01AC01C80133
:10314000B7010E94651E9A949920E1F6DF91CF9114
:103150001F910F91FF90EF90DF90CF90BF90AF90B5
:103160009F9008950E94261808950F931F938C0135
:103170000E942618C8010E9486171F910F9108957A
:10318000883008F078C0E82FF0E0EE0FFF1FEC5B0E
:10319000F74F718360838330D9F0843030F481300D
:1031A00009F444C0823060F439C0853051F1853073
:1031B000D8F0863009F446C0873009F05CC04FC0B3
:1031C000809169008C7F842B80936900E89A089530
:1031D00080916900440F551F440F551F837F842B36
:1031E00080936900E99A08958091690074E0440F22
:1031F000551F7A95E1F78F7C842B80936900EA9ABA
:1032000008958091690066E0440F551F6A95E1F7C3
:103210008F73842B80936900EB9A089580916A00E4
:103220008C7F842B80936A00EC9A089580916A00C9
:10323000440F551F440F551F837F842B80936A00D2
:10324000ED9A089580916A0024E0440F551F2A9555
:10325000E1F78F7C842B80936A00EE9A0895809129
:103260006A0096E0440F551F9A95E1F78F73842BFF
:1032700080936A00EF9A0895883048F5833091F082
:10328000843028F48130B1F0823050F411C08530A0
:1032900069F0853048F0863079F0873081F40EC0CF
:1032A000E8980DC0E9980BC0EA9809C0EB9807C0F0
:1032B000EC9805C0ED9803C0EE9801C0EF98E82F98
:1032C000F0E0EE0FFF1FEC5BF74F118210820895C4
:1032D0001F920F920FB60F920BB60F9211242F93DD
:1032E0003F934F935F936F937F938F939F93AF938E
:1032F000BF93EF93FF938091480890914908892BE1
:1033000029F0E0914808F09149080995FF91EF9163
:10331000BF91AF919F918F917F916F915F914F91ED
:103320003F912F910F900BBE0F900FBE0F901F90EB
:1033300018951F920F920FB60F920BB60F92112491
:103340002F933F934F935F936F937F938F939F93AD
:10335000AF93BF93EF93FF9380914A0890914B08EE
:10336000892B29F0E0914A08F0914B080995FF91CB
:10337000EF91BF91AF919F918F917F916F915F91ED
:103380004F913F912F910F900BBE0F900FBE0F905A
:103390001F9018951F920F920FB60F920BB60F92B7
:1033A00011242F933F934F935F936F937F938F934A
:1033B0009F93AF93BF93EF93FF9380914C089091AD
:1033C0004D08892B29F0E0914C08F0914D080995A2
:1033D000FF91EF91BF91AF919F918F917F916F91ED
:1033E0005F914F913F912F910F900BBE0F900FBEA9
:1033F0000F901F9018951F920F920FB60F920BB659
:103400000F9211242F933F934F935F936F937F936A
:103410008F939F93AF93BF93EF93FF9380914E0849
:1034200090914F08892B29F0E0914E08F0914F08B8
:103430000995FF91EF91BF91AF919F918F917F91EE
:103440006F915F914F913F912F910F900BBE0F9015
:103450000FBE0F901F9018951F920F920FB60F92EC
:103460000BB60F9211242F933F934F935F936F935B
:103470007F938F939F93AF93BF93EF93FF9380912D
:10348000440890914508892B29F0E0914408F09177
:1034900045080995FF91EF91BF91AF919F918F9151
:1034A0007F916F915F914F913F912F910F900BBE44
:1034B0000F900FBE0F901F9018951F920F920FB68E
:1034C0000F920BB60F9211242F933F934F935F935C
:1034D0006F937F938F939F93AF93BF93EF93FF93DC
:1034E0008091460890914708892B29F0E091460881
:1034F000F09147080995FF91EF91BF91AF919F918E
:103500008F917F916F915F914F913F912F910F908C
:103510000BBE0F900FBE0F901F9018951F920F9229
:103520000FB60F920BB60F9211242F933F934F9328
:103530005F936F937F938F939F93AF93BF93EF931B
:10354000FF938091500890915108892B29F0E091C8
:103550005008F09151080995FF91EF91BF91AF91FB
:103560009F918F917F916F915F914F913F912F919B
:103570000F900BBE0F900FBE0F901F9018951F92CB
:103580000F920FB60F920BB60F9211242F933F9309
:103590004F935F936F937F938F939F93AF93BF935B
:1035A000EF93FF938091520890915308892B29F053
:1035B000E0915208F09153080995FF91EF91BF9166
:1035C000AF919F918F917F916F915F914F913F91BB
:1035D0002F910F900BBE0F900FBE0F901F9018955C
:1035E0001F920F920FB60F9211242F933F938F9338
:1035F0009F93AF93BF938091580890915908A091E1
:103600005A08B0915B0830915C080196A11DB11D6C
:10361000232F2D5F2D3720F02D570196A11DB11DB1
:1036200020935C088093580890935908A0935A08F7
:10363000B0935B088091540890915508A09156086A
:10364000B09157080196A11DB11D80935408909325
:103650005508A0935608B0935708BF91AF919F911A
:103660008F913F912F910F900FBE0F901F90189543
:103670008FB7F894209158083091590840915A0812
:1036800050915B088FBFB901CA0108959FB7F894A4
:103690002091540830915508409156085091570890
:1036A00086B5A89B06C08F3F21F02F5F3F4F4F4F3D
:1036B0005F4F9FBF542F432F322F2227280F311DDA
:1036C000411D511D82E0220F331F441F551F8A9553
:1036D000D1F7B901CA010895EF92FF920F931F939A
:1036E0007B018C018FB7F89440915808509159088C
:1036F00060915A0870915B088FBF2FB7F894809142
:10370000580890915908A0915A08B0915B082FBFB2
:10371000841B950BA60BB70BE816F9060A071B07C7
:1037200060F71F910F91FF90EF900895019739F086
:10373000880F991F880F991F02970197F1F7089535
:10374000789484B5826084BD84B5816084BD85B57C
:10375000826085BD85B5816085BDEEE6F0E0808143
:1037600081608083E1EBF0E0808184608083E0EB26
:10377000F0E0808181608083E1E9F0E08081826017
:103780008083808181608083E1EAF0E080818260D3
:103790008083808181608083E1E2F1E080818260CA
:1037A0008083808181608083E0E9F0E080818160B6
:1037B0008083E0EAF0E0808181608083E0E2F1E0F4
:1037C000808181608083EAE7F0E08081846080838B
:1037D0008081826080838081816080838081806835
:1037E00080831092C10008958DE061E00E941A1C50
:1037F000F894FFCF282F30E0C90188589E4FFC0174
:1038000094912E5C3E4FF9018491882391F0E82F2A
:10381000F0E0EE0FFF1FEC51FF4FA591B49166232E
:1038200029F48C91909589238C9308958C91892B00
:103830008C930895482F50E0CA0182549E4FFC019A
:103840002491CA0188589E4FFC0194914E5C5E4FB2
:10385000FA013491332309F455C0222309F440C0FE
:10386000213019F484B58F7704C0223021F484B557
:103870008F7D84BD35C0263021F48091B0008F77D4
:1038800005C0273031F48091B0008F7D8093B00067
:1038900027C0283021F4809190008F770BC0293009
:1038A00021F4809190008F7D05C02A3031F4809101
:1038B0009000877F8093900013C02B3021F480917B
:1038C000A0008F770BC02C3021F48091A0008F7D59
:1038D00005C02D3029F48091A000877F8093A0003F
:1038E000E32FF0E0EE0FFF1FE250FF4FA591B491E0
:1038F000662329F48C91909589238C9308958C915B
:10390000892B8C930895682F70E0CB0182549E4FD1
:10391000FC012491CB0188589E4FFC0144916E5CC0
:103920007E4FFB019491992319F420E030E053C0BD
:10393000222309F440C0213019F484B58F7704C0E4
:10394000223021F484B58F7D84BD35C0263021F42A
:103950008091B0008F7705C0273031F48091B0009E
:103960008F7D8093B00027C0283021F48091900093
:103970008F770BC0293021F4809190008F7D05C096
:103980002A3031F480919000877F8093900013C09B
:103990002B3021F48091A0008F770BC02C3021F4C4
:1039A0008091A0008F7D05C02D3029F48091A0006A
:1039B000877F8093A000892F90E0880F991F885EF1
:1039C0009E4FFC01A591B4918C9120E030E08423BE
:1039D00011F021E030E0C9010895EF92FF920F93BA
:1039E0001F937B018C0120E030E040E05FE40E9407
:1039F000692088238CF0C801B70120E030E040E066
:103A00005FE40E94651E0E9427219B01AC012050AB
:103A100030404040504806C0C801B7010E942721ED
:103A20009B01AC01B901CA011F910F91FF90EF906A
:103A30000895A0E0B0E0EFE1FDE10C946C24DC011E
:103A40002B01FA019C91923008F439C1EB01888175
:103A5000823008F433C1943069F4843009F02FC106
:103A600011969C9111978981981709F428C1AFE8A4
:103A7000B4E025C1843009F421C18230A9F4923028
:103A800009F01DC19A01AD0188E0EA010990AE017B
:103A9000E90109929E018150C1F7E20189811196E5
:103AA0009C918923818308C1923009F407C1129641
:103AB0002D903C901397EB018A819B811496AD90D9
:103AC000BD90CD90DC901797EC80FD800E811F811A
:103AD0009101281B390BB90137FF04C066277727EE
:103AE000621B730B603271050CF061C01216130675
:103AF0006CF537014801062E04C09694879477949C
:103B000067940A94D2F721E030E040E050E004C02E
:103B1000220F331F441F551F6A95D2F721503040A2
:103B2000404050402E213F21402351232115310593
:103B30004105510521F021E030E040E050E07901FD
:103B40008A01E628F728082919293CC0232BD1F13E
:103B5000260E371E35014601062E04C09694879422
:103B6000779467940A94D2F721E030E040E050E087
:103B700004C0220F331F441F551F6A95D2F72150EE
:103B80003040404050402A213B214C215D212115ED
:103B900031054105510521F021E030E040E050E0E1
:103BA00059016A01A628B728C828D9280BC0821550
:103BB00093052CF01C01AA24BB24650103C0EE244C
:103BC000FF24870111969C91D20111968C91981730
:103BD00009F445C0992339F0A80197012A193B0936
:103BE0004C095D0906C0A60195012E193F09400B3D
:103BF000510B57FD08C01182338222822483358302
:103C0000468357831DC081E08183338222828827C7
:103C10009927DC01821B930BA40BB50B848395833E
:103C2000A683B7830DC0220F331F441F551F248363
:103C3000358346835783828193810197938382835F
:103C40002481358146815781DA01C9010197A10993
:103C5000B1098F5F9F4FAF4FBF4328F30BC09183D4
:103C600033822282EA0CFB1C0C1D1D1DE482F582AE
:103C70000683178383E080832481358146815781C1
:103C800057FF1AC0C901AA2797FDA095BA2F8170C6
:103C90009070A070B0705695479537952795822BF8
:103CA000932BA42BB52B84839583A683B783828122
:103CB0009381019693838283DF0101C0D201CD01FC
:103CC000CDB7DEB7E2E10C948824A0E2B0E0EBE6E9
:103CD000FEE10C94782469837A838B839C832D8303
:103CE0003E834F835887E9E0EE2EF12CEC0EFD1E4B
:103CF000CE010196B7010E9418238E010F5E1F4F5F
:103D0000CE010596B8010E9418238A8991E089277F
:103D10008A8BC701B801AE01475E5F4F0E94191D33
:103D20000E944322A096E6E00C949424A0E2B0E026
:103D3000ECE9FEE10C94782469837A838B839C837D
:103D40002D833E834F835887F9E0EF2EF12CEC0E44
:103D5000FD1ECE010196B7010E9418238E010F5E51
:103D60001F4FCE010596B8010E941823C701B80164
:103D7000AE01475E5F4F0E94191D0E944322A0962C
:103D8000E6E00C949424A0E2B0E0E9ECFEE10C94AF
:103D90006C2469837A838B839C832D833E834F833A
:103DA0005887CE010196BE01675F7F4F0E9418239E
:103DB000CE010596BE016F5E7F4F0E941823998544
:103DC000923088F089898230C8F0943019F48230BA
:103DD00051F404C0843029F4923081F48FE894E0E7
:103DE000C6C0923049F420E09A858A89981321E070
:103DF0002A87CE010996BBC0823049F420E09A851B
:103E00008A89981321E02A8BCE014196B0C02D8477
:103E10003E844F8458886D887E888F88988CEE24E5
:103E2000FF248701AA24BB24650140E050E060E044
:103E300070E0E0E0F0E0C10181709070892BE9F062
:103E4000E60CF71C081D191D9A01AB012A0D3B1D3C
:103E50004C1D5D1D80E090E0A0E0B0E0E614F704AA
:103E60000805190520F481E090E0A0E0B0E0BA0177
:103E7000A901480F591F6A1F7B1FAA0CBB1CCC1C31
:103E8000DD1C97FE08C081E090E0A0E0B0E0A82A29
:103E9000B92ACA2ADB2A3196E032F10549F0660CCC
:103EA000771C881C991C5694479437942794C3CF49
:103EB000FA85EA892B893C898B859C85280F391FD7
:103EC0002E5F3F4F17C0CA0181709070892B61F03F
:103ED00016950795F794E79480E090E0A0E0B0E8AD
:103EE000E82AF92A0A2B1B2B769567955795479553
:103EF0002F5F3F4F77FDE7CF0CC0440F551F661F64
:103F0000771F17FD4160EE0CFF1C001F111F215091
:103F10003040403090E0590790E0690790E479071D
:103F200060F32B8F3C8FDB01CA018F779070A070FC
:103F3000B07080349105A105B10561F447FD0AC058
:103F4000E114F1040105110529F0405C5F4F6F4F4A
:103F50007F4F40781A8EFE1711F081E08A8F4D8FC7
:103F60005E8F6F8F78A383E0898FCE0149960E9480
:103F70004322A096E2E10C948824A8E1B0E0E3ECAF
:103F8000FFE10C94742469837A838B839C832D8353
:103F90003E834F835887B9E0EB2EF12CEC0EFD1ECB
:103FA000CE010196B7010E9418238E010F5E1F4FAC
:103FB000CE010596B8010E9418232985223008F405
:103FC0007EC03989323010F4B8017CC08A859A8964
:103FD00089278A87243011F0223031F4231709F021
:103FE0006EC06FE874E06EC0343039F41D861E86F2
:103FF0001F86188A1C861B8604C0323021F484E098
:104000008987B7015FC02B853C858B899C89281BDC
:10401000390B3C872B87ED84FE840F851889AD888A
:10402000BE88CF88D88CEA14FB040C051D0540F42B
:10403000EE0CFF1C001F111F215030403C872B87C6
:1040400020E030E040E050E080E090E0A0E0B0E42C
:1040500060E070E0EA14FB040C051D0540F0282B1D
:10406000392B4A2B5B2BEA18FB080C091D09B69566
:10407000A79597958795EE0CFF1C001F111F6F5F8A
:104080007F4F6F31710531F7DA01C9018F77907079
:10409000A070B07080349105A105B10561F427FDD1
:1040A0000AC0E114F1040105110529F0205C3F4F1D
:1040B0004F4F5F4F20782D873E874F87588BBE012B
:1040C000675F7F4FCB010E9443226896EAE00C9421
:1040D0009024A8E1B0E0EFE6F0E20C947824698344
:1040E0007A838B839C832D833E834F83588789E01B
:1040F000E82EF12CEC0EFD1ECE010196B7010E94B8
:1041000018238E010F5E1F4FCE010596B8010E9445
:1041100018238985823040F08989823028F0C701D0
:10412000B8010E94902301C08FEF6896E6E00C94DE
:104130009424A8E1B0E0EFE9F0E20C9478246983DC
:104140007A838B839C832D833E834F83588789E0BA
:10415000E82EF12CEC0EFD1ECE010196B7010E9457
:1041600018238E010F5E1F4FCE010596B8010E94E5
:1041700018238985823040F08989823028F0C70170
:10418000B8010E94902301C081E06896E6E00C949B
:104190009424A8E0B0E0EFECF0E20C9475249B01CD
:1041A000AC0183E08983DA01C9018827B7FD8395D3
:1041B0009927AA27BB27B82E21153105410551059E
:1041C00019F482E089833AC08823A9F0203080E086
:1041D000380780E0480780E8580729F460E070E07D
:1041E00080E09FEC30C0EE24FF248701E21AF30A3E
:1041F000040B150B02C079018A018EE1C82ED12C67
:10420000DC82CB82ED82FE820F831887C801B70162
:104210000E94F42101971816190684F4082E04C090
:10422000EE0CFF1C001F111F0A94D2F7ED82FE82D4
:104230000F831887C81AD90ADC82CB82BA82CE01D2
:1042400001960E9443222896E9E00C949124ACE068
:10425000B0E0EDE2F1E20C947C2469837A838B83F5
:104260009C83CE010196BE016B5F7F4F0E94182395
:104270008D81823061F1823050F1843021F48E8161
:10428000882351F12EC02F81388537FD20C06E81E3
:104290002F3131051CF06623F9F023C08EE190E048
:1042A000821B930B29853A854B855C8504C0569506
:1042B0004795379527958A95D2F76623B1F05095A3
:1042C0004095309521953F4F4F4F5F4F0EC020E0F6
:1042D00030E040E050E009C02FEF3FEF4FEF5FE7E5
:1042E00004C020E030E040E050E8B901CA012C965B
:1042F000E2E00C949824A8E0B0E0E1E8F1E20C944C
:1043000074247B018C01611571058105910519F4F7
:1043100082E0898360C083E089838EE1C82ED12C3E
:10432000DC82CB82ED82FE820F831887C801B70141
:104330000E94F421FC013197F7FF3BC0222733276D
:104340002E1B3F0B57016801022E04C0D694C79460
:10435000B794A7940A94D2F740E050E060E070E090
:1043600081E090E0A0E0B0E004C0880F991FAA1F90
:10437000BB1F2A95D2F70197A109B1098E219F2170
:10438000A023B1230097A105B10521F041E050E041
:1043900060E070E04A295B296C297D294D835E83AA
:1043A0006F8378878EE190E08E1B9F0B9C838B83BD
:1043B00012C0309781F00E2E04C0EE0CFF1C001FBF
:1043C000111F0A94D2F7ED82FE820F831887CE1A4E
:1043D000DF0ADC82CB821A82CE0101960E94432240
:1043E0002896EAE00C949024EF92FF920F931F938B
:1043F0007B018C0180E0E81680E0F80681E0080788
:1044000080E0180788F48FEFE816F1040105110524
:1044100031F028F088E090E0A0E0B0E017C080E044
:1044200090E0A0E0B0E012C080E0E81680E0F8067E
:1044300080E0080781E0180728F088E190E0A0E01C
:10444000B0E004C080E190E0A0E0B0E020E230E025
:1044500040E050E0281B390B4A0B5B0B04C016955B
:104460000795F794E7948A95D2F7F701E956FB4F41
:104470008081281B310941095109C9011F910F9100
:10448000FF90EF900895DF92EF92FF920F931F93AA
:10449000FC01E480F58006811781D1808081823023
:1044A00048F480E090E0A0E1B0E0E82AF92A0A2B85
:1044B0001B2BA5C0843009F49FC0823021F4EE2468
:1044C000FF24870105C0E114F1040105110519F469
:1044D000E0E0F0E096C0628173819FEF6238790777
:1044E0000CF05BC022E83FEF261B370B2A31310569
:1044F0002CF020E030E040E050E02AC0B801A701F5
:10450000022E04C076956795579547950A94D2F781
:1045100081E090E0A0E0B0E004C0880F991FAA1FDE
:10452000BB1F2A95D2F70197A109B1098E219F21BE
:10453000A023B1230097A105B10521F081E090E00F
:10454000A0E0B0E09A01AB01282B392B4A2B5B2B62
:10455000DA01C9018F779070A070B0708034910536
:10456000A105B10539F427FF09C0205C3F4F4F4F2B
:104570005F4F04C0215C3F4F4F4F5F4FE0E0F0E0E2
:104580002030A0E03A07A0E04A07A0E45A0710F064
:10459000E1E0F0E079018A0127C06038710564F537
:1045A000FB01E158FF4FD801C7018F779070A070D1
:1045B000B07080349105A105B10539F4E7FE0DC056
:1045C00080E490E0A0E0B0E004C08FE390E0A0E0E1
:1045D000B0E0E80EF91E0A1F1B1F17FF05C0169555
:1045E0000795F794E794319687E016950795F79429
:1045F000E7948A95D1F705C0EE24FF248701EFEFF9
:10460000F0E06E2F679566276795902F9F77D79478
:10461000DD24D7948E2F8695492F462B582F5D2960
:10462000B701CA011F910F91FF90EF90DF9008959D
:10463000FC01DB01408151812281622F6F7770E0A4
:10464000221F2227221F9381892F880F822B282F38
:1046500030E0991F9927991F11969C931197211566
:104660003105A9F5411551056105710511F482E087
:1046700037C082E89FEF13969C938E9312979A010E
:10468000AB0167E0220F331F441F551F6A95D1F716
:1046900083E08C930DC0220F331F441F551F1296C9
:1046A0008D919C911397019713969C938E931297DB
:1046B000203080E0380780E0480780E4580758F34E
:1046C00014962D933D934D935C93179708952F3F28
:1046D000310579F4411551056105710519F484E03E
:1046E0008C93089564FF03C081E08C9312C01C92E8
:1046F00010C02F57304013963C932E93129783E0AF
:104700008C9387E0440F551F661F771F8A95D1F75A
:10471000706414964D935D936D937C9317970895F1
:104720001F93DC01FB019C91923008F447C080810B
:10473000823008F443C0943051F411961C918430B7
:1047400099F58181682F70E0611B71093FC0843049
:1047500021F0923031F48230B9F18181882389F1DE
:104760002DC011961C9111978230F1F0818118179C
:10477000D9F412962D913C911397828193818217DF
:10478000930794F028173907BCF014968D919D91EA
:104790000D90BC91A02D2481358146815781281729
:1047A00039074A075B0718F4112341F00AC0821742
:1047B0009307A407B50740F4112319F061E070E0F6
:1047C00005C06FEF7FEF02C060E070E0CB011F918A
:1047D0000895629FD001739FF001829FE00DF11D4B
:1047E000649FE00DF11D929FF00D839FF00D749F6B
:1047F000F00D659FF00D9927729FB00DE11DF91F17
:10480000639FB00DE11DF91FBD01CF011124089573
:1048100097FB092E07260AD077FD04D049D006D091
:1048200000201AF4709561957F4F0895F6F79095E2
:1048300081959F4F0895A1E21A2EAA1BBB1BFD0173
:104840000DC0AA1FBB1FEE1FFF1FA217B307E4076F
:10485000F50720F0A21BB30BE40BF50B661F771FC7
:10486000881F991F1A9469F76095709580959095A7
:104870009B01AC01BD01CF01089597FB092E0526D0
:104880000ED057FD04D0D7DF0AD0001C38F4509565
:104890004095309521953F4F4F4F5F4F0895F6F764
:1048A00090958095709561957F4F8F4F9F4F08959C
:1048B000AA1BBB1B51E107C0AA1FBB1FA617B70746
:1048C00010F0A61BB70B881F991F5A95A9F7809562
:1048D0009095BC01CD0108952F923F924F925F9227
:1048E0006F927F928F929F92AF92BF92CF92DF9200
:1048F000EF92FF920F931F93CF93DF93CDB7DEB765
:10490000CA1BDB0B0FB6F894DEBF0FBECDBF0994F8
:104910002A88398848885F846E847D848C849B844F
:10492000AA84B984C884DF80EE80FD800C811B815D
:10493000AA81B981CE0FD11D0FB6F894DEBF0FBE8C
:10494000CDBFED010895EE0FFF1F0590F491E02D0E
:064950000994F894FFCF6A
:10495600000000003C0222163A1600004000140037
:104966005400436F6D6D6D616E643A20466F7277C9
:1049760061726400466F727761726400436F6D6D99
:104986006D616E643A205475726E20526967687460
:10499600005475726E20526967687400436F6D6DBE
:1049A600616E643A205475726E204C6566740054CC
:1049B60075726E204C65667400436F6D6D6D616E29
:1049C600643A2053746F700053746F700068656C9E
:1049D6006C6F2C20776F726C64210068656C6C6F4D
:1049E6002C20776F726C6421320068656C6C6F2CBA
:1049F60020776F726C64213300DEADBEEF77DEADDB
:104A0600BEEF885361792027486F766572637261BD
:104A160066742721005361792027486F7665726393
:104A260072616674270054696D656F75740045720E
:104A3600726F72004572726F722054726967676591
:104A4600720047726F7570203100536179206120C2
:104A5600636F6D6D616E642100436F6D6D616E6491
:104A66003F00436F6D6D616E643A205475726E201F
:104A76004C656674005475726E204C65667400430E
:104A86006F6D6D6D616E643A205475726E20526959
:104A9600676874005475726E2052696768740043C3
:104AA6006F6D6D6D616E643A2053746F7000537450
:104AB6006F7000436F6D6D6D616E643A20466F7264
:104AC6007761726400466F727761726400436F6D3E
:104AD6006D6D616E643A205265766572736500523B
:104AE60065766572736500436D64204572726F72F8
:104AF60000436F6D6D6D616E643A206572726F7200
:104B06002100627269646765206D6F646500417299
:104B16006475696E6F2032303039205652426F7498
:104B260020636F6E74726F6C2070726F6772616D46
:104B3600004E6F726D616C204D6F6465006E6F7212
:104B46006D616C206D6F6465006E6F726D616C20B7
:104B56006D6F646532005652626F74204E41005686
:104B660052626F742064657465637465640053658E
:104B76007474696E672074696D656F757420746FDF
:104B86003A2035207365636F6E64730053657474E1
:104B9600696E67204C616E677561676520746F3A50
:104BA60020456E676C697368006E6F726D616C206C
:104BB6006D6F64653300FF0001202000000000E7F0
:104BC600E7E7E7E7E7E7E7E7E7000000003F15224A
:104BD600163A162E0000000000F41B22163A1600A4
:104BE60000000000000000000102020303030304AA
:104BF6000404040404040405050505050505050566
:104C06000505050505050506060606060606060645
:104C1600060606060606060606060606060606062E
:104C26000606060606060607070707070707070715
:104C360007070707070707070707070707070707FE
:104C460007070707070707070707070707070707EE
:104C560007070707070707070707070707070707DE
:104C660007070707070707080808080808080808C5
:104C760008080808080808080808080808080808AE
:104C8600080808080808080808080808080808089E
:104C9600080808080808080808080808080808088E
:104CA600080808080808080808080808080808087E
:104CB600080808080808080808080808080808086E
:104CC600080808080808080808080808080808085E
:104CD600080808080808080808080808080808084E
:084CE60008080808080808008E
:00000001FF
