:100000000C9403010C945E220C948F220C94C02259
:100010000C94F1220C9422230C9453230C948423EB
:100020000C94B5230C942D010C942D010C942D01EE
:100030000C942D010C942D010C942D010C942D0188
:100040000C942D010C941B120C942D010C942D0179
:100050000C942D010C942D010C942D010C94E6238D
:100060000C942D010C94C21B0C942D010C942D01A9
:100070000C942D010C942D010C942D010C94DF0691
:100080000C942D010C942D010C942D010C942D0138
:100090000C94EE1B0C942D010C942D010C942D014D
:1000A0000C942D010C946A060C942D010C942D01D6
:1000B0000C942D010C942D010C942D010C942D0108
:1000C0000C942D010C942D010C942D010C941A1CF0
:1000D0000C942D010C942D010C94461C0C942D01B4
:1000E0000C942D0100002100240027002A002D007F
:1000F0003000330001010000040107010A01000083
:100100002200250028002B002E00310034000201BF
:100110000000050108010B0100002000230026005B
:1001200029002C002F00320000010000030106010D
:10013000090105050505070508080808020202026D
:100140000A0A080804040404010101010101010173
:100150000303030303030303040707070C0C0C0C3E
:100160000C0C0C0C02020202060606060606060627
:100170000B0B0B0B0B0B0B0B0102102020080810B4
:100180002040102040800201020108040201010207
:1001900004081020408080402010080402018004E0
:1001A000020180402010080402010804020101023B
:1001B0000408102040800102040810204080000044
:1001C000090A02080B0C0D070603040100000000D9
:1001D000000000000000000000000000000000001F
:1001E000000000000000000000000000000000000F
:1001F00000000000000000000000000000000000FF
:1002000000000000481E11241FBECFEFD1E2DEBF68
:10021000CDBF14E0A0E0B2E0E6E2FDE500E00BBFF8
:1002200002C007900D92A639B107D9F711E1A6E9EE
:10023000B4E001C01D92A937B107E1F712E0C6E0B2
:10024000D2E004C02297FE010E948D2EC430D10757
:10025000C9F70E94901B0C94912E0C9400001F93E0
:10026000DF93CF93CDB7DEB78091A2049091A30422
:1002700090939D0480939C048091A2049091A30488
:100280009093A1048093A0048091A4049091A5046C
:1002900090939B0480939A048091A4049091A50468
:1002A00090939F0480939E0480919E0490919F045C
:1002B0000097A9F48091A0049091A104009779F48B
:1002C00080911D0290911E0260E00E94ED258091B8
:1002D0001F029091200260E00E94ED252AC18091CA
:1002E0009E0490919F04181619067CF480912102B7
:1002F0009091220260E00E94ED258091230290916E
:10030000240261E00E94ED2519C080919E04909125
:100310009F04909581959F4F90939F0480939E0496
:10032000809121029091220261E00E94ED2580914E
:1003300023029091240260E00E94ED2580919E04AA
:1003400090919F04181619068CF480911D029091CB
:100350001E02482F80919E0490919F049C01235D72
:100360003F4F842FB9010E94232507C080911D02B1
:1003700090911E0260E00E94ED2584E191E120E071
:1003800032E0B9010E944F1F20919E0430919F04DA
:1003900084E191E1B9014AE050E00E94E7208091B8
:1003A000A0049091A104181619067CF480912502EE
:1003B0009091260260E00E94ED25809127029091A5
:1003C000280261E00E94ED2519C08091A00490915F
:1003D000A104909581959F4F9093A1048093A004D0
:1003E000809125029091260261E00E94ED25809186
:1003F00027029091280260E00E94ED258091A004E0
:100400009091A104181619060CF07AC08091A004EE
:100410009091A104803891058CF18091A004909175
:10042000A104883C910554F580911F02909120020F
:10043000182F8091A0049091A1048896AA2797FD77
:10044000A095BA2FBC01CD010E94CC2ADC01CB01C2
:10045000BC01CD012FE832EC45E35FE30E94962812
:10046000DC01CB01BC01CD010E942A2BDC01CB01B8
:100470009C01812FB9010E94232549C08091A004CD
:100480009091A104883C910554F180911F029091B4
:100490002002182F8091A0049091A1048896AA2789
:1004A00097FDA095BA2FBC01CD010E94CC2ADC019A
:1004B000CB01BC01CD012AE037ED43E25FE30E94AE
:1004C0009628DC01CB01BC01CD010E942A2BDC0166
:1004D000CB019C01812FB9010E94232518C0809176
:1004E0001F0290912002482F8091A0049091A104B6
:1004F0009C01285D3F4F842FB9010E94232507C02E
:1005000080911F029091200260E00E94ED2584E11D
:1005100091E12EE032E0B9010E944F1F2091A0042A
:100520003091A10484E191E1B9014AE050E00E94D8
:10053000E720CF91DF911F910895DF93CF93CDB73F
:10054000DEB728970FB6F894DEBF0FBECDBF8091FF
:100550007F029091800260E00E94ED2580918102EF
:100560009091820261E00E94ED2520917502309108
:10057000760284E191E1B9014AE050E00E94E7206F
:10058000409175025091760258874F836F8178852C
:100590006530710531F08F8198858830910509F1BA
:1005A0005DC1809191029091920290937602809326
:1005B000750284E191E129E232E0B9010E94D12083
:1005C0001092A5041092A4041092A3041092A20405
:1005D000809183029091840260E070E00E94232564
:1005E0003DC184E191E12EE232E0B9010E94D120C7
:1005F00080E090E00E9419069E838D8381E090E068
:100600000E9419069C838B8382E090E00E94190669
:100610009A8389838B819C8145979093A9048093C9
:10062000A8048091A8049091A9049093AB048093AE
:10063000AA042091A8043091A9048091A604909165
:10064000A704A901481B590BCA019093AD048093DC
:10065000AC048091A8049091A9049093A70480937E
:10066000A60420917702309178028091AA0490919B
:10067000AB04289FA001299F500D389F500D1124D5
:100680002091790230917A028091AC049091AD046E
:10069000BC01269FC001279F900D369F900D11240D
:1006A000840F951F9093A3048093A2048091A204C9
:1006B0009091A3048F3F910539F034F08FEF90E0D3
:1006C0009093A3048093A2048091A2049091A30428
:1006D0007FEF8130970734F481E09FEF9093A3047C
:1006E0008093A2048D819E8144979093B10480935E
:1006F000B0048091B0049091B1049093B3048093BE
:10070000B2042091B0043091B1048091AE04909174
:10071000AF04A901481B590BCA019093B5048093FB
:10072000B4048091B0049091B1049093AF0480938D
:10073000AE0420917B0230917C028091B2049091B2
:10074000B304289FA001299F500D389F500D1124FC
:1007500020917D0230917E028091B4049091B50485
:10076000BC01269FC001279F900D369F900D11243C
:10077000840F951F9093A5048093A4048091A404F2
:100780009091A5048F3F910539F034F08FEF90E000
:100790009093A5048093A4048091A4049091A5044F
:1007A0007FEF8130970734F481E09FEF9093A504A9
:1007B0008093A404809183029091840267E370E0A7
:1007C0000E94232584E191E125E332E0B9010E94F2
:1007D0004F1F84E191E12D813E81B9014AE050E053
:1007E0000E94E72084E191E128E432E0B9010E940F
:1007F0004F1F84E191E12B813C81B9014AE050E037
:100800000E94E72084E191E12AE532E0B9010E94EB
:100810004F1F2091A4043091A50484E191E1B90116
:100820004AE050E00E94E72084E191E127E632E0CF
:10083000B9010E944F1F2091A2043091A30484E1CA
:1008400091E1B9014AE050E00E94E72080919102D5
:1008500090919202909376028093750228960FB63B
:10086000F894DEBF0FBECDBFCF91DF910895DF9327
:10087000CF93CDB7DEB70E9496248DE061E00E9451
:10088000CD2584E061E00E94CD258CE061E00E94EE
:10089000CD258DE061E00E94CD2584E191E140E02D
:1008A00051EE60E070E00E94D21C0E9494070E940A
:1008B000B9058AEE94E061E070E042E050E021E0AA
:1008C00030E00E94AC138FED94E062E070E042E013
:1008D00050E022E030E00E94AC1386ED94E065E049
:1008E00070E042E050E025E030E00E94AC1383EB82
:1008F00094E063E070E042E050E023E030E00E94EA
:10090000AC1380E994E064E070E042E050E024E061
:1009100030E00E94AC1380E090E0CF91DF91089529
:10092000DF93CF93CDB7DEB78091B6049091B70433
:10093000009711F40E949D028091B6049091B70433
:1009400001969093B7048093B6048091B604909179
:10095000B7048430910524F01092B7041092B604C5
:100960000E94EF13E1CFDF93CF93CDB7DEB7809135
:10097000B8049091B904009711F40E942F0180915E
:10098000B8049091B90401969093B9048093B80487
:100990008091B8049091B9048430910524F01092AC
:1009A000B9041092B8040E94EF13E1CFDF93CF9304
:1009B000CDB7DEB70E9479080E94EF13FBCFDF931B
:1009C000CF93CDB7DEB78DE060E00E94ED250E94A9
:1009D000EF13F9CFDF93CF93CDB7DEB78DE061E0B2
:1009E0000E94ED250E94EF13F9CFDF93CF9300D043
:1009F0000F92CDB7DEB789838AEB94E00E94800B1B
:100A00008091BA04882309F09DC084E191E123E933
:100A100032E0B9010E94D1208091BD04282F30E03E
:100A20003B832A838A819B818430910509F457C0D6
:100A30002A813B8125303105D4F48A819B81813024
:100A40009105A9F12A813B81223031052CF48A815C
:100A50009B81009721F176C02A813B8122303105AC
:100A600071F18A819B818330910589F16BC02A8164
:100A70003B812630310509F448C08A819B8186304C
:100A80009105ACF12A813B812730310509F44BC037
:100A90008A819B818830910509F44DC053C084E15F
:100AA00091E124EA32E0B9010E94D1204BC084E1F7
:100AB00091E124EB32E0B9010E94D12043C084E1EE
:100AC00091E129EC32E0B9010E94D1203BC084E1E0
:100AD00091E12FED32E0B9010E94D12033C084E1D1
:100AE00091E124EF32E0B9010E94D1202BC084E1D2
:100AF00091E12AE033E0B9010E94D12085E090E045
:100B000090939202809391021DC084E191E12AE1C9
:100B100033E0B9010E94D12088E090E090939202E6
:100B2000809391020FC084E191E12DE233E0B9019D
:100B30000E94D12007C084E191E120E433E0B901B3
:100B40000E94D1200F900F900F90CF91DF910895C8
:100B5000DF93CF93CDB7DEB781E08093BA041092D4
:100B6000BD048AEB94E060E00E94BE0DCF91DF915E
:100B70000895DF93CF93CDB7DEB70E94A60E27E589
:100B800033E080E0B90141E00E94B70C81E063E00E
:100B90000E94830C8CE593E00E94FB0ACF91DF91C9
:100BA0000895DF93CF93CDB7DEB727970FB6F894AC
:100BB000DEBF0FBECDBF8C836D835F834E831B82F0
:100BC0001A8219821B821FC08C81882F90E09C01A1
:100BD000220F331F8E819F81FC01E20FF31F2081C2
:100BE000318189819A81820F931F9A8389838C81B5
:100BF000882319F483E18C8303C08C8181508C831A
:100C00008B818F5F8B839B818D819817E8F28D811B
:100C1000282F30E089819A81B9010E940B2ECB01E7
:100C200027960FB6F894DEBF0FBECDBFCF91DF91F0
:100C30000895DF93CF93CDB7DEB727970FB6F8941B
:100C4000DEBF0FBECDBF9D838C838091DE048B837E
:100C50001A8219828C819D819F838E838E819F81D0
:100C600081309105B1F08E819F8182309105F1F044
:100C70008E819F81009719F58B81882F90E0880FD6
:100C8000991FFC01E152FB4F808191819A838983F6
:100C900016C08B81882F90E0880F991FFC01E95FB7
:100CA000FA4F808191819A83898309C02FE235E0D0
:100CB0008B8164E0A9010E94D1059A83898389818F
:100CC0009A8127960FB6F894DEBF0FBECDBFCF91A5
:100CD000DF9108951F920F920FB60F9200905B0064
:100CE0000F9211242F933F934F935F936F937F93B2
:100CF0008F939F93AF93BF93EF93FF93DF93CF9324
:100D00000F92CDB7DEB7F89483E260E00E94ED2544
:100D1000E1EAF0E08081882F90E080749070198281
:100D2000009711F081E089838981882399F0E4EAB2
:100D3000F0E011821082A1EAB0E0E1EAF0E0808107
:100D40008F7B8C93A9E3B0E0E9E3F0E080818062DF
:100D50008C931DC0E6EAF0E0808191819093DB04E2
:100D60008093DA04A1EAB0E0E1EAF0E080818064F7
:100D70008C93A9E3B0E0E9E3F0E0808180628C939A
:100D8000A2E7B0E0E2E7F0E080818F7D8C93789479
:100D90000F90CF91DF91FF91EF91BF91AF919F9114
:100DA0008F917F916F915F914F913F912F910F9014
:100DB00000925B000F900FBE0F901F9018951F922E
:100DC0000F920FB60F9200905B000F9211242F9399
:100DD0003F934F935F936F937F938F939F93AF93C3
:100DE000BF93EF93FF93DF93CF930F92CDB7DEB70F
:100DF000F89484E260E00E94ED25E1E9F0E0808172
:100E0000882F90E0807490701982009711F081E033
:100E100089838981882399F0E4E9F0E011821082C6
:100E2000A1E9B0E0E1E9F0E080818F7B8C93A8E359
:100E3000B0E0E8E3F0E0808180628C931DC0E6E9D9
:100E4000F0E0808191819093DD048093DC04A1E93E
:100E5000B0E0E1E9F0E0808180648C93A8E3B0E049
:100E6000E8E3F0E0808180628C93A1E7B0E0E1E705
:100E7000F0E080818F7D8C9378940F90CF91DF91FB
:100E8000FF91EF91BF91AF919F918F917F916F9162
:100E90005F914F913F912F910F9000925B000F90C7
:100EA0000FBE0F901F901895DF93CF93CDB7DEB78D
:100EB000A1EAB0E0E1EAF0E0808180648C93A9E3EC
:100EC000B0E0E9E3F0E0808180628C93A2E7B0E0DB
:100ED000E2E7F0E0808180628C9383E261E00E942F
:100EE000ED25CF91DF910895DF93CF93CDB7DEB796
:100EF000A1E9B0E0E1E9F0E0808180648C93A8E3AF
:100F0000B0E0E8E3F0E0808180628C93A1E7B0E09C
:100F1000E1E7F0E0808180628C9384E261E00E94EE
:100F2000ED25CF91DF910895DF93CF93CDB7DEB755
:100F30002E970FB6F894DEBF0FBECDBFA1E9B0E08B
:100F4000E1E9F0E080818B7F8C93A1E9B0E0E1E9F9
:100F5000F0E0808183608C93A1E9B0E0E1E9F0E00A
:100F6000808180688C93A0E9B0E0E0E9F0E08081C6
:100F70008C7F8C93A1E9B0E0E1E9F0E08081877E8D
:100F80008C93A1EAB0E0E1EAF0E080818B7F8C9362
:100F9000A1EAB0E0E1EAF0E0808183608C93A1EA0D
:100FA000B0E0E1EAF0E0808180688C93A0EAB0E0F4
:100FB000E0EAF0E080818C7F8C93A1EAB0E0E1EA86
:100FC000F0E08081877E8C931092DE0484E261E001
:100FD0000E94CD2583E261E00E94CD2585E261E09B
:100FE0000E94CD2580E090E0AAE7B3E48B879C8740
:100FF000AD87BE876B857C858D859E8520E030E042
:101000004AE755E40E949628DC01CB018F8398873C
:10101000A987BA876F81788589859A8520E030E035
:1010200040E85FE30E949C2A88232CF481E090E052
:101030009E838D833FC06F81788589859A8520E066
:101040003FEF4FE757E40E943C2A18164CF56B859A
:101050007C858D859E8520E030E040E251E40E9451
:101060009628DC01CB01BC01CD010E94C026DC0129
:10107000CB019E838D830FC080E991E09C838B839D
:101080008B819C810197F1F79C838B838D819E815D
:1010900001979E838D838D819E81009769F714C08F
:1010A0006F81788589859A850E94C026DC01CB01F5
:1010B0009E838D838D819E819A83898389819A8184
:1010C0000197F1F79A83898384E260E00E94ED251D
:1010D00083E260E00E94ED2585E260E00E94ED255C
:1010E0002E960FB6F894DEBF0FBECDBFCF91DF9125
:1010F00008950F931F93DF93CF93CDB7DEB7AF97CC
:101100000FB6F894DEBF0FBECDBF8091DE048F5FB7
:101110008093DE048091DE041DA6843110F021E06E
:101120002DA73DA5332311F01092DE040E94740711
:1011300080E090E0A0E2B2E48FA398A7A9A7BAA7A5
:101140006FA178A589A59AA520E030E04AE755E48B
:101150000E949628DC01CB018BA39CA3ADA3BEA368
:101160006BA17CA18DA19EA120E030E040E85FE36F
:101170000E949C2A88232CF481E090E09AA389A302
:101180003FC06BA17CA18DA19EA120E03FEF4FE766
:1011900057E40E943C2A18164CF56FA178A589A542
:1011A0009AA520E030E040E251E40E949628DC015C
:1011B000CB01BC01CD010E94C026DC01CB019AA36A
:1011C00089A30FC080E991E098A38F8F8F8D98A19C
:1011D0000197F1F798A38F8F89A19AA101979AA3FC
:1011E00089A389A19AA1009769F714C06BA17CA17A
:1011F0008DA19EA10E94C026DC01CB019AA389A3E8
:1012000089A19AA19E8F8D8F8D8D9E8D0197F1F76B
:101210009E8F8D8F8091DE04082F10E08091DC047A
:101220009091DD04CC01A0E0B0E0BC01CD010E94B2
:101230007E2BDC01CB01BC01CD0120E030E043E19D
:1012400052E40E949029DC01CB01BC01CD010E9437
:10125000C026DC01CB019C01C801880F991FFC014D
:10126000E152FB4F318320830E94540780E090E0DD
:10127000A0E2B2E4898F9A8FAB8FBC8F698D7A8D93
:101280008B8D9C8D20E030E04AE755E40E94962843
:10129000DC01CB018D8B9E8BAF8BB88F6D897E89E6
:1012A0008F89988D20E030E040E85FE30E949C2A1F
:1012B00088232CF481E090E09C8B8B8B3FC06D8960
:1012C0007E898F89988D20E03FEF4FE757E40E9499
:1012D0003C2A18164CF5698D7A8D8B8D9C8D20E0FB
:1012E00030E040E251E40E949628DC01CB01BC01D1
:1012F000CD010E94C026DC01CB019C8B8B8B0FC0E3
:1013000080E991E09A8B898B89899A890197F1F715
:101310009A8B898B8B899C8901979C8B8B8B8B8972
:101320009C89009769F714C06D897E898F89988D93
:101330000E94C026DC01CB019C8B8B8B8B899C8906
:10134000988B8F878F8598890197F1F7988B8F8776
:101350008091DE04082F10E08091DA049091DB0484
:10136000CC01A0E0B0E0BC01CD010E947E2BDC01ED
:10137000CB01BC01CD0120E030E043E152E40E940A
:101380009029DC01CB01BC01CD010E94C026DC010B
:10139000CB019C01C801880F991FFC01E95FFA4F3E
:1013A0003183208385E261E00E94ED2580E090E0BA
:1013B000A8E4B2E48B879C87AD87BE876B857C856C
:1013C0008D859E8520E030E04AE755E40E9496280E
:1013D000DC01CB018F839887A987BA876F817885D5
:1013E00089859A8520E030E040E85FE30E949C2AEE
:1013F00088232CF481E090E09E838D833FC06F8131
:10140000788589859A8520E03FEF4FE757E40E9471
:101410003C2A18164CF56B857C858D859E8520E0D1
:1014200030E040E251E40E949628DC01CB01BC018F
:10143000CD010E94C026DC01CB019E838D830FC0AD
:1014400080E991E09C838B838B819C810197F1F7EC
:101450009C838B838D819E8101979E838D838D815B
:101460009E81009769F714C06F81788589859A8578
:101470000E94C026DC01CB019E838D838D819E81DD
:101480009A83898389819A810197F1F79A83898365
:101490008091DE04282F30E03CA72BA780E00E943B
:1014A000F3249FA78EA78EA59FA5992334F42EA57C
:1014B0003FA52F5F3F4F3FA72EA78EA59FA59595D0
:1014C00087959C018BA59CA5880F991FFC01E15D68
:1014D000FA4F31832083AF960FB6F894DEBF0FBE6C
:1014E000CDBFCF91DF911F910F910895DF93CF93DF
:1014F00000D00F92CDB7DEB7809161039091620367
:101500009B838A8319820FC08A819B81817090702E
:10151000882319F089818F5F89838A819B819695C1
:1015200087959B838A838A819B81009769F789814C
:10153000282F30E080E190E0AC01421B530B9A0170
:1015400084E690E0AC01249FC001259F900D349F5C
:10155000900D11249B838A838A819B819295829529
:101560008F7089279F7089279B838A838A810F9038
:101570000F900F90CF91DF910895DF93CF930F924B
:10158000CDB7DEB719828AE260E00E94ED258FEFC9
:101590000E941F1189838AE261E00E94ED25898102
:1015A0000F90CF91DF910895DF93CF9300D000D0BB
:1015B0000F92CDB7DEB78A837C836B834D838AE23B
:1015C00060E00E94ED258A818F7180620E941F1168
:1015D00089838B819C816D810E94ED108AE261E09C
:1015E0000E94ED2589810F900F900F900F900F9022
:1015F000CF91DF910895DF93CF9300D0CDB7DEB7C1
:101600009A838983E981FA81808180936A03898141
:101610009A81FC013196808180936B0389819A8144
:10162000FC013296808180936C0389819A81FC0150
:101630003396808180936D0389819A81FC01349671
:10164000808180936E0329813A8180E1B90145E070
:101650000E94D40A0F900F90CF91DF910895DF93ED
:10166000CF930F92CDB7DEB78091640389838981D0
:10167000882311F081E089838981882339F02FE65E
:1016800033E08AE0B90145E00E94D40A0F90CF917F
:10169000DF910895DF93CF9300D000D000D0CDB775
:1016A000DEB789837B836A835D834C832E838AE2E2
:1016B00060E00E94ED2589810E941F118E818823A0
:1016C00091F08C819D81009731F48A819B816E819C
:1016D0000E94ED1008C08A819B812C813D81B90157
:1016E0004E810E94A9108AE261E00E94ED252696B3
:1016F0000FB6F894DEBF0FBECDBFCF91DF91089536
:10170000DF93CF93CDB7DEB728970FB6F894DEBF3F
:101710000FBECDBF9F838E8380E28D8381E08A835D
:10172000109257058BE260E00E94ED250E94BD0AF1
:101730008C838C81882F90E08E7090709595879522
:101740008B838B81873019F482E089831A828B81A5
:10175000882F90E0FC01EC59FC4F908118868D8118
:10176000891710F481E088878885882311F0198211
:101770001A828A81882319F12E813F814E815F81EF
:101780008B81882F90E0FC01EC59FC4F908181E621
:10179000B901292F0E944A0B0E94BD0A8C838C81BB
:1017A000882F90E08E709070959587958B838B81B4
:1017B000873019F083E0898302C084E089838BE25B
:1017C00061E00E94ED2510925705898128960FB699
:1017D000F894DEBF0FBECDBFCF91DF910895DF93A8
:1017E000CF930F92CDB7DEB70E943C1183E089837F
:1017F00083E09E012F5F3F4FB90141E00E94D40A70
:1018000085E1898384E09E012F5F3F4FB90141E06C
:101810000E94D40A80E7898385E09E012F5F3F4FB5
:10182000B90141E00E94D40A89E0898386E09E01E3
:101830002F5F3F4FB90141E00E94D40A8FE08983B6
:1018400080E09E012F5F3F4FB90141E00E94D40A22
:1018500080E7898387E09E012F5F3F4FB90141E018
:101860000E94D40A81EE60E070E040E050E020E0A9
:101870000E944A0B82EE60E070E040E050E020E021
:101880000E944A0B0F90CF91DF910895DF93CF9381
:1018900000D000D000D0CDB7DEB78B837D836C83C2
:1018A0004E8319820DC08981282F30E08C819D8163
:1018B000FC01E20FF31F8FEF808389818F5F8983A3
:1018C00099818E81981778F38AE260E00E94ED2575
:1018D0008B818F710E941F118A832C813D8180E052
:1018E00090E0B9014E810E94A9108AE261E00E9455
:1018F000ED258A8126960FB6F894DEBF0FBECDBFC8
:10190000CF91DF910895DF93CF9300D00F92CDB7A1
:10191000DEB78A836B8386E09E012F5F3F4FB9015C
:1019200041E00E94460C8981866089838B81882FE3
:1019300090E0880F991F982F8981892389838A8154
:10194000882321F089818860898303C08981877F0A
:10195000898386E09E012F5F3F4FB90141E00E94DD
:10196000D40A0F900F900F90CF91DF910895DF93DD
:10197000CF93CDB7DEB72A970FB6F894DEBF0FBE70
:10198000CDBF8C837E836D834F8381E08A8380E229
:1019900089838981882309F4BDC08981813208F057
:1019A000B9C08C81863008F0B5C08C81882309F5D8
:1019B000ED81FE81808180936F038D819E81FC018A
:1019C00031968081809370038D819E81FC013296D7
:1019D0008081809371038D819E81FC01339680818B
:1019E000809372038D819E81FC0134968081809367
:1019F00073038C81982F965F9A878C81823018F0C0
:101A000081E0898702C095E099872D813E818A8592
:101A1000B90149850E94D40A9E012D5F3F4F81E0A4
:101A2000B90141E00E94460C8A81882381F08C81B3
:101A3000282F30E081E090E0022E02C0880F991F2D
:101A40000A94E2F7982F8B81892B8B830FC08C81AE
:101A5000282F30E081E090E002C0880F991F2A957E
:101A6000E2F7982F90958B8189238B839E012D5FC0
:101A70003F4F81E0B90141E00E94D40A8F81882361
:101A800019F08981888701C0188698859B838C818D
:101A90008F5E9E012D5F3F4FB90141E00E94D40A45
:101AA0008C81882F90E02B81FC01EC59FC4F208326
:101AB0009E012D5F3F4F82E0B90141E00E94460C3C
:101AC0008F81882381F08C81282F30E081E090E0A5
:101AD000022E02C0880F991F0A94E2F7982F8B817B
:101AE000892B8B830FC08C81282F30E081E090E020
:101AF00002C0880F991F2A95E2F7982F90958B8145
:101B000089238B839E012D5F3F4F82E0B90141E025
:101B10000E94D40A2A960FB6F894DEBF0FBECDBF3E
:101B2000CF91DF910895DF93CF930F92CDB7DEB7BA
:101B300080E09E012F5F3F4FB90141E00E94460CBB
:101B40008981882F90E081709070882399F0898135
:101B50008E7F898380E09E012F5F3F4FB90141E076
:101B60000E94D40A81E490E00E948C2481E490E0F9
:101B70000E948C240F90CF91DF910895DF93CF9333
:101B800000D000D000D0CDB7DEB79B838A836C83B2
:101B900080E2898381E0809357058BE260E00E94B8
:101BA000ED250E94930D2AE633E08AE0B90145E075
:101BB0000E94D40A2A813B8180EAB90140E050E0CA
:101BC00029810E944A0B8BE261E00E94ED258C8105
:101BD000882379F4809157058E838E81882311F0B4
:101BE00081E08E838E818823A9F7809163038D83A2
:101BF00002C081E08D838D8126960FB6F894DEBFFA
:101C00000FBECDBFCF91DF910895DF93CF930F9299
:101C1000CDB7DEB780E09E012F5F3F4FB90141E0B5
:101C20000E94460C8981882F90E081709070009707
:101C300099F489818160898380E09E012F5F3F4F05
:101C4000B90141E00E94D40A81E490E00E948C2412
:101C500081E490E00E948C240F90CF91DF91089551
:101C6000DF93CF9300D0CDB7DEB78BE260E00E9468
:101C7000ED250E94BD0A8A838A81882F90E08074B6
:101C80009070009759F08A81882F90E08E70907044
:101C900095958795898389810E94F5048A81882F8B
:101CA00090E0807290700097E9F0109257050E94C2
:101CB0002F0B0E94050E8091610390916203880FA3
:101CC000991F9093620380936103809161039091C7
:101CD00062038160909362038093610381E080934B
:101CE000630321C08A81882F90E0807190700097F3
:101CF000D1F081EE60E070E040E050E020E00E9432
:101D00004A0B109257050E942F0B0E94050E8091DE
:101D1000610390916203880F991F909362038093EF
:101D200061031092630380E78A839E012E5F3F4F19
:101D300087E0B90141E00E94D40A8BE261E00E9491
:101D4000ED250F900F90CF91DF910895DF93CF9302
:101D5000CDB7DEB7E8970FB6F894DEBF0FBECDBFA4
:101D600085E361E00E94CD2585E360E00E94ED25DA
:101D700080E090E0A8E4B2E48DAB9EABAFABB8AF2F
:101D80006DA97EA98FA998AD20E030E04AE755E41F
:101D90000E949628DC01CB0189AB9AABABABBCAB04
:101DA00069A97AA98BA99CA920E030E040E85FE30B
:101DB0000E949C2A88232CF481E090E098AB8FA7A6
:101DC0003FC069A97AA98BA99CA920E03FEF4FE702
:101DD00057E40E943C2A18164CF56DA97EA98FA9DC
:101DE00098AD20E030E040E251E40E949628DC010A
:101DF000CB01BC01CD010E94C026DC01CB0198AB18
:101E00008FA70FC080E991E09EA78DA78DA59EA505
:101E10000197F1F79EA78DA78FA598A9019798AB79
:101E20008FA78FA598A9009769F714C069A97AA907
:101E30008BA99CA90E94C026DC01CB0198AB8FA77F
:101E40008FA598A99CA78BA78BA59CA50197F1F7B7
:101E50009CA78BA785E361E00E94ED2580E090E0E0
:101E6000A8E4B2E48FA398A7A9A7BAA76FA178A501
:101E700089A59AA520E030E04AE755E40E9496281B
:101E8000DC01CB018BA39CA3ADA3BEA36BA17CA162
:101E90008DA19EA120E030E040E85FE30E949C2AF3
:101EA00088232CF481E090E09AA389A33FC06BA122
:101EB0007CA18DA19EA120E03FEF4FE757E40E9457
:101EC0003C2A18164CF56FA178A589A59AA520E0A3
:101ED00030E040E251E40E949628DC01CB01BC01D5
:101EE000CD010E94C026DC01CB019AA389A30FC0BB
:101EF00080E991E098A38F8F8F8D98A10197F1F7DA
:101F000098A38F8F89A19AA101979AA389A389A1E8
:101F10009AA1009769F714C06BA17CA18DA19EA125
:101F20000E94C026DC01CB019AA389A389A19AA1B2
:101F30009E8F8D8F8D8D9E8D0197F1F79E8F8D8F4A
:101F4000109257058BE260E00E94ED258BE261E084
:101F50000E94CD258AE261E00E94CD2520E33EE08B
:101F600084E0B90140E050E00E94B62180E090E0BA
:101F7000A0E3B1E4898F9A8FAB8FBC8F698D7A8D86
:101F80008B8D9C8D20E030E04AE755E40E94962836
:101F9000DC01CB018D8B9E8BAF8BB88F6D897E89D9
:101FA0008F89988D20E030E040E85FE30E949C2A12
:101FB00088232CF481E090E09C8B8B8B3FC06D8953
:101FC0007E898F89988D20E03FEF4FE757E40E948C
:101FD0003C2A18164CF5698D7A8D8B8D9C8D20E0EE
:101FE00030E040E251E40E949628DC01CB01BC01C4
:101FF000CD010E94C026DC01CB019C8B8B8B0FC0D6
:1020000080E991E09A8B898B89899A890197F1F708
:102010009A8B898B8B899C8901979C8B8B8B8B8965
:102020009C89009769F714C06D897E898F89988D86
:102030000E94C026DC01CB019C8B8B8B8B899C89F9
:10204000988B8F878F8598890197F1F7988B8F8769
:102050000E94EF0B80E090E0A0E0B0E48B879C87CB
:10206000AD87BE876B857C858D859E8520E030E0C1
:102070004AE755E40E949628DC01CB018F839887BC
:10208000A987BA876F81788589859A8520E030E0B5
:1020900040E85FE30E949C2A88232CF481E090E0D2
:1020A0009E838D833FC06F81788589859A8520E0E6
:1020B0003FEF4FE757E40E943C2A18164CF56B851A
:1020C0007C858D859E8520E030E040E251E40E94D1
:1020D0009628DC01CB01BC01CD010E94C026DC01A9
:1020E000CB019E838D830FC080E991E09C838B831D
:1020F0008B819C810197F1F79C838B838D819E81DD
:1021000001979E838D838D819E81009769F714C00E
:102110006F81788589859A850E94C026DC01CB0174
:102120009E838D838D819E819A83898389819A8103
:102130000197F1F79A8389838BE261E00E94ED2594
:10214000E8960FB6F894DEBF0FBECDBFCF91DF91FA
:102150000895DF93CF93CDB7DEB727970FB6F894E6
:10216000DEBF0FBECDBF9B838A837D836C834E838E
:10217000198226C0AEE4B0E08981282F30E08A8140
:102180009B81FC01E20FF31F80818C93EDE4F0E072
:1021900080811F82882314F081E08F838F818823C0
:1021A000A9F78981282F30E08C819D81DC01A20F65
:1021B000B31FEEE4F0E080818C9389818F5F898387
:1021C00099818E819817B0F227960FB6F894DEBFEA
:1021D0000FBECDBFCF91DF910895DF93CF9300D095
:1021E00000D00F92CDB7DEB79B838A836C831982B0
:1021F0001AC0AEE4B0E08981282F30E08A819B814B
:10220000FC01E20FF31F80818C93EDE4F0E080810C
:102210001D82882314F081E08D838D818823A9F7A6
:1022200089818F5F898399818C81981710F30F9032
:102230000F900F900F900F90CF91DF910895DF9343
:10224000CF9300D0CDB7DEB78983EEE4F0E089818B
:102250008083EDE4F0E080811A82882314F081E02D
:102260008A838A818823A9F7EEE4F0E080810F90C9
:102270000F90CF91DF910895DF93CF93CDB7DEB765
:1022800083E361E00E94CD2582E360E00E94CD25DA
:1022900084E361E00E94CD2585E361E00E94CD25C5
:1022A00085E361E00E94ED25ECE4F0E080E58083C9
:1022B00085E360E00E94ED25CF91DF910895DF93E3
:1022C000CF93CDB7DEB7FFCFFF93FFB7F894FF935F
:1022D000EF93DF93CF93BF93AF939F938F937F93AE
:1022E0006F935F934F933F932F931F930F93FF929F
:1022F000EF92DF92CF92BF92AF929F928F927F9296
:102300006F925F924F923F922F921F920F92EDE544
:10231000F0E0808191819093030F8093020FADE5EF
:10232000B0E080915B0590915C05FC01E050FF4FAF
:102330008081918111969C938E930F901F902F9086
:102340003F904F905F906F907F908F909F90AF9055
:10235000BF90CF90DF90EF90FF900F911F912F9142
:102360003F914F915F916F917F918F919F91AF912D
:10237000BF91CF91DF91EF91FF91FFBFFF91089542
:10238000FF93FFB7F894FF93EF93DF93CF93BF933F
:10239000AF939F938F937F936F935F934F933F93ED
:1023A0002F931F930F93FF92EF92DF92CF92BF92E2
:1023B000AF929F928F927F926F925F924F923F92D5
:1023C0002F921F920F9220915B0530915C05EDE5F5
:1023D000F0E080819181F901E050FF4F918380838B
:1023E000EDE5F0E08091020F9091030F91838083DF
:1023F0000F901F902F903F904F905F906F907F9025
:102400008F909F90AF90BF90CF90DF90EF90FF9014
:102410000F911F912F913F914F915F916F917F91FC
:102420008F919F91AF91BF91CF91DF91EF91FF91EC
:10243000FFBFFF910895FF93FFB7F894F068FF93F3
:10244000EF93DF93CF93BF93AF939F938F937F933C
:102450006F935F934F933F932F931F930F93FF922D
:10246000EF92DF92CF92BF92AF929F928F927F9224
:102470006F925F924F923F922F921F920F922091F4
:102480005B0530915C05EDE5F0E080819181F9011B
:10249000E050FF4F91838083EDE5F0E08091020FE3
:1024A0009091030F9183808381E080935805A8E881
:1024B000B0E0E8E8F0E080819181805F984D11966E
:1024C0009C938E93EDE5F0E08091020F9091030FC5
:1024D000918380830F901F902F903F904F905F903B
:1024E0006F907F908F909F90AF90BF90CF90DF9034
:1024F000EF90FF900F911F912F913F914F915F911E
:102500006F917F918F919F91AF91BF91CF91DF910B
:10251000EF91FF91FFBFFF910895DF93CF9300D01C
:1025200000D0CDB7DEB79A8389837C836B838B81A0
:102530009C81FC01E95FFE4F11821082E981FA81E2
:1025400080819181009769F4E981FA818B819C8176
:1025500091838083E981FA818B819C81938382833B
:1025600011C0E981FA8182819381FC01E95FFE4F0C
:102570008B819C8191838083E981FA818B819C810D
:10258000938382830F900F900F900F90CF91DF91E4
:102590000895DF93CF93CDB7DEB780915B0590911F
:1025A0005C05FC01ED5FFE4F108280915B05909110
:1025B0005C05FC01EA5FFE4F8081823089F48091E6
:1025C0005B0590915C05FC01EE5FFE4F8081882FDA
:1025D00090E0880F991FFC01EA54F14F118210829C
:1025E00020915B0530915C0588EC9EE0B9010E946A
:1025F0008D12CF91DF910895DF93CF9300D000D05B
:10260000CDB7DEB79C838B83EB81FC818081918188
:102610009A838983EB81FC81808191810097A1F06D
:10262000EB81FC8180819181FC01E95FFE4F80811B
:102630009181EB81FC819183808389819A81FC0166
:10264000E95FFE4F1182108289819A810F900F906D
:102650000F900F90CF91DF910895DF93CF93CDB777
:10266000DEB780915B0590915C05FC01ED5FFE4F4C
:102670008081813061F420915B0530915C0580910F
:102680007503909176032817390709F062C080918D
:10269000CC0E9091CD0E009749F08CEC9EE00E94FC
:1026A000FC1290935C0580935B054AC08091DA0E22
:1026B000882379F580918F0290919002009749F1DB
:1026C0008091DB0E9091DC0EFC01EB57FD4F808179
:1026D000882F90E0880F991FFC01EA54F14F808108
:1026E00091810097B1F08091DB0E9091DC0EFC019E
:1026F000EB57FD4F8081882F90E0880F991FFC01D8
:10270000EA54F14F8081918190935C0580935B0541
:1027100017C08091FE0E9091FF0E009749F08EEF4A
:102720009EE00E94FC1290935C0580935B0508C0BC
:10273000809175039091760390935C0580935B057F
:1027400080915B0590915C05FC01ED5FFE4F81E09F
:102750008083CF91DF910895DF93CF93CDB7DEB71C
:102760002B970FB6F894DEBF0FBECDBF9D838C8331
:102770007F836E83598748873B872A87EFE5F0E0A0
:1027800080818983F8948C819D8190935E058093EC
:102790005D058E819F819093600580935F0588859C
:1027A000809361058A858093620582E08093580555
:1027B0000E94C01180916305909164059B838A8378
:1027C000EFE5F0E0898180838A819B812B960FB6AB
:1027D000F894DEBF0FBECDBFCF91DF910895DF9398
:1027E000CF930F92CDB7DEB7EFE5F0E0808189831C
:1027F000F89484E0809358050E94C011EFE5F0E062
:10280000898180830F90CF91DF910895DF93CF93DB
:102810000F92CDB7DEB7EFE5F0E080818983F894C1
:1028200083E0809358050E94C011EFE5F0E08981B4
:1028300080830F90CF91DF910895DF93CF9300D0E5
:102840000F92CDB7DEB7EFE5F0E080818983F89491
:1028500080915B0590915C05FC01EC5FFE4F8081EF
:1028600091819B838A83EFE5F0E0898180838A816F
:102870009B810F900F900F90CF91DF910895DF9380
:10288000CF9300D00F92CDB7DEB7EFE5F0E08081B7
:102890008983F89486E0809358050E94C011809146
:1028A000590590915A059B838A83EFE5F0E0898171
:1028B00080838A819B810F900F900F90CF91DF9141
:1028C0000895DF93CF9300D00F92CDB7DEB79B83EF
:1028D0008A83EFE5F0E080818983F89487E0809334
:1028E00058058A819B8190935A05809359050E94CF
:1028F000C011EFE5F0E0898180830F900F900F9079
:10290000CF91DF910895DF93CF9300D00F92CDB791
:10291000DEB79B838A83EFE5F0E080818983F894BA
:1029200088E0809358058A819B8190935A05809313
:1029300059050E94C011EFE5F0E0898180830F9076
:102940000F900F90CF91DF910895DF93CF9300D038
:102950000F92CDB7DEB79B838A83EFE5F0E08081ED
:102960008983F89489E0809358058A819B819093AC
:102970005A05809359050E94C011EFE5F0E0898166
:1029800080830F900F900F90CF91DF910895DF9388
:10299000CF9300D00F92CDB7DEB79B838A83EFE54C
:1029A000F0E080818983F8948AE0809358058A81D9
:1029B0009B8190935A05809359050E94C011EFE5C1
:1029C000F0E0898180830F900F900F90CF91DF917D
:1029D0000895DF93CF9300D00F92CDB7DEB79B83DE
:1029E0008A83EFE5F0E080818983F8948BE080931F
:1029F00058058A819B8190935A05809359050E94BE
:102A0000C011EFE5F0E0898180830F900F900F9067
:102A1000CF91DF910895DF93CF93CDB7DEB72E9797
:102A20000FB6F894DEBF0FBECDBF80E090E0A8ECFB
:102A3000B1E48B879C87AD87BE876B857C858D8550
:102A40009E8520E030E04AE755E40E949628DC01AC
:102A5000CB018F839887A987BA876F81788589850D
:102A60009A8520E030E040E85FE30E949C2A8823BA
:102A70002CF481E090E09E838D833FC06F81788548
:102A800089859A8520E03FEF4FE757E40E943C2A72
:102A900018164CF56B857C858D859E8520E030E091
:102AA00040E251E40E949628DC01CB01BC01CD013B
:102AB0000E94C026DC01CB019E838D830FC080E97C
:102AC00091E09C838B838B819C810197F1F79C83A0
:102AD0008B838D819E8101979E838D838D819E81C5
:102AE000009769F714C06F81788589859A850E945F
:102AF000C026DC01CB019E838D838D819E819A83CC
:102B0000898389819A810197F1F79A8389832E9627
:102B10000FB6F894DEBF0FBECDBFCF91DF91089501
:102B2000DF93CF9300D000D00F92CDB7DEB7F894EB
:102B3000EAE2F0E080EF8083809174031D828630AA
:102B400010F481E08D838D81882339F080917403A6
:102B50008F5F8A8380E6898306C0809174038550E5
:102B60008A8380E98983EBE2F0E080EF80831C8236
:102B700005C00E940B158C818F5F8C838C818436FD
:102B8000C0F3EBE2F0E010821C8205C00E940B153E
:102B90008C818F5F8C838C818832C0F31B821EC036
:102BA000EBE2F0E0898180831C8205C00E940B1556
:102BB0008C818F5F8C838C818A30C0F3EBE2F0E0F4
:102BC00010821C8205C00E940B158C818F5F8C8344
:102BD0008C818A30C0F38B818F5F8B839B818A814C
:102BE0009817F0F21C8205C00E940B158C818F5F34
:102BF0008C838C818431C0F3B6CFDF93CF9300D028
:102C0000CDB7DEB71A821BC08A81882F90E0FC0105
:102C1000EB57FD4F808189838981893048F4898110
:102C2000882F90E0FC01EF52F14F81E0808304C0D7
:102C3000109274030E9490158A818E5F8A838A8124
:102C4000282F30E080918F0290919002880F991F79
:102C500028173907C8F20F900F90CF91DF91089590
:102C6000DF93CF930F92CDB7DEB780918F02909113
:102C70009002009709F472C08091D00E8150809329
:102C8000D00E8091D00E1982882311F481E08983BF
:102C90008981882309F462C080915B0590915C056D
:102CA000009799F080915B0590915C05FC01EA5FCB
:102CB000FE4F8081823049F48091DA0E882329F416
:102CC00088E0809374030E9490158091DB0E9091B0
:102CD000DC0E02969093DC0E8093DB0E80918F02C7
:102CE000909190029C01220F331F8091DB0E9091F6
:102CF000DC0E8217930720F01092DC0E1092DB0E90
:102D00008091DB0E9091DC0E0196FC01EB57FD4F9C
:102D100080818093D00E8091DB0E9091DC0EFC01BF
:102D2000EB57FD4F8081882399F08091DB0E9091C5
:102D3000DC0EFC01EB57FD4F8081882F90E0880F5F
:102D4000991FFC01EA54F14F80819181009721F491
:102D500081E08093DA0E02C01092DA0E0F90CF91CC
:102D6000DF910895DF93CF93CDB7DEB728970FB6E5
:102D7000F894DEBF0FBECDBF8D836E838091590561
:102D800090915A0501978C839091DD0E8C81891763
:102D900030F089E0809374030E949015D2C01B82AA
:102DA0008E81882309F494C081E08B8391C08C814B
:102DB000882F90E0880F991F880F991F8252914F9A
:102DC0000E94FC129A83898389819A81FC01ED5FBC
:102DD000FE4F82E0808389819A81FC01EA5FFE4F89
:102DE0008081282F30E038872F838F81988582302B
:102DF0009105D1F02F8138852330310531F08F8155
:102E000098858130910549F00FC08CEC9EE02981B6
:102E10003A81B9010E948D1207C08EEF9EE0298190
:102E20003A81B9010E948D1220915B0530915C05B9
:102E300080917503909176032817390709F445C0EE
:102E40008B81882309F041C080915B0590915C05DE
:102E5000FC01EA5FFE4F8081833059F089819A81BD
:102E6000FC01EA5FFE4F8081833019F481E08B839F
:102E70002CC080915B0590915C05FC01EA5FFE4FE0
:102E80008081813011F580918F029091900200979E
:102E9000E1F08091DA0E8823C1F48091DB0E9091ED
:102EA000DC0EFC01EB57FD4F8081882F90E0880FEE
:102EB000991FFC01EA54F14F2081318189819A8167
:102EC0002817390711F481E08B838D81882379F0ED
:102ED0008C81882F90E0880F991F880F991FFC0123
:102EE000E252F14F80819181009709F060CF8B8190
:102EF000882339F120915B0530915C058091750341
:102F00009091760328173907E1F080915B05909145
:102F10005C05FC01ED5FFE4F82E0808380915B05E4
:102F200090915C05FC01EA5FFE4F8081813049F49D
:102F300020915B0530915C058EEF9EE0B9010E9407
:102F40008D1228960FB6F894DEBF0FBECDBFCF917D
:102F5000DF910895DF93CF930F92CDB7DEB78091C5
:102F6000590590915A05019789839091DD0E8981C9
:102F7000891730F08AE0809374030E94901529C06D
:102F800080915B0590915C05FC01EA5FFE4F8081BA
:102F9000823031F48CE0809374030E94901519C044
:102FA00080915B0590915C05FC01ED5FFE4F83E035
:102FB00080838981882F90E0880F991F880F991F3F
:102FC0008252914F20915B0530915C05B9010E94BE
:102FD0008D120F90CF91DF910895DF93CF93CDB7EE
:102FE000DEB72E970FB6F894DEBF0FBECDBF80912F
:102FF000C80E9091C90E009719F41E861D8600C157
:1030000080916105823059F480916205882321F016
:1030100080916205893018F021E02C8701C01C8660
:103020008C85882329F081E0809374030E94901599
:1030300080916105823069F480916205882F90E06B
:10304000FC01EF52F14F8081882319F431E03B8776
:1030500001C01B868B85882329F084E0809374034C
:103060000E94901580916105823081F48091620503
:10307000882F90E0880F991FFC01EA54F14F80815E
:103080009181009719F081E08A8701C01A868A85AC
:10309000882329F083E0809374030E949015809127
:1030A00061051986882311F491E0998729852223E7
:1030B00029F08DEA9DE09E838D8306C088EC9EE01A
:1030C0000E94FC129E838D838D819E8181509F4F33
:1030D0009C838B838B819C8185979A83898389814B
:1030E0009A81FC013296108289819A81FC01B09606
:1030F00080E8808389819A81FC01B29680915D0588
:1031000090915E05892F9927808389819A81FC019E
:10311000B39680915D0590915E05808389819A8147
:10312000FC01B49686E094E1892F992780838981F8
:103130009A81FC01B59686E094E180838D819E8121
:10314000FC01E050FF4F89819A81918380838D81BA
:103150009E81FC01ED5FFE4F82E0808320915F0540
:10316000309160058D819E81FC01EC5FFE4F3183C3
:103170002083209161058D819E81FC01EA5FFE4FD5
:103180002083209162058D819E81FC01EE5FFE4FC0
:10319000208380916105282F30E038872F838F812D
:1031A00098858230910559F02F813885233031057B
:1031B000A1F08F81988581309105B9F01DC0809173
:1031C0006205882F90E0880F991FFC01EA54F14FA7
:1031D0008D819E81918380830FC08CEC9EE02D8138
:1031E0003E81B9010E948D1207C08EEF9EE02D81B5
:1031F0003E81B9010E948D1221E030E03E872D878B
:103200008D859E852E960FB6F894DEBF0FBECDBF7E
:10321000CF91DF910895DF93CF93CDB7DEB7279796
:103220000FB6F894DEBF0FBECDBF80915805282F92
:1032300030E03F832E838E819F818530910509F494
:10324000A2C12E813F81263031051CF58E819F81E0
:103250008230910509F473C02E813F8123303105FE
:103260005CF48E819F81009709F48DC12E813F818E
:1032700021303105C9F182C18E819F818330910552
:1032800009F4D8C02E813F812430310509F4E1C012
:1032900075C18E819F818830910509F441C12E81CD
:1032A0003F81293031056CF48E819F8186309105F4
:1032B00009F40CC12E813F812730310509F422C168
:1032C0005DC18E819F818A30910509F433C12E81C1
:1032D0003F812A3031050CF428C18E819F818B30CB
:1032E000910509F439C14AC10E94301680915B05ED
:1032F00090915C05FC01EA5FFE4F8081813009F00E
:1033000042C180915B0590915C05FC01ED5FFE4F31
:103310008081813009F037C180915B0590915C0517
:10332000FC01ED5FFE4F82E0808320915B053091D0
:103330005C058EEF9EE0B9010E948D1224C10E94AF
:10334000ED179093640580936305809163059091D8
:1033500064051D82009711F091E09D832D81222349
:1033600009F411C180916105833069F480915B0596
:1033700090915C05FC01EA5FFE4F8081833019F07B
:1033800031E03C8301C01C828C81882349F080910C
:103390005B0590915C05FC01ED5FFE4F82E0808350
:1033A00080915B0590915C05FC01EA5FFE4F808196
:1033B000813099F480916105823079F48091DB0E3F
:1033C0009091DC0EFC01EB57FD4F908180916205DE
:1033D000981719F481E08B8301C01B828B818823AD
:1033E00049F080915B0590915C05FC01ED5FFE4F1B
:1033F00082E0808380915B0590915C05FC01EA5F2F
:10340000FE4F8081813009F0BEC080915B059091B4
:103410005C05FC01ED5FFE4F8081823009F0B3C096
:1034200020915B0530915C058EEF9EE0B9010E9412
:103430008D12A9C020915B0530915C0580917503C8
:10344000909176032817390709F49DC00E94C9128C
:103450009AC080915B0590915C05FC01EA5FFE4F8C
:103460008081282F30E03A83298389819A818230B4
:103470009105A9F029813A812330310531F0898104
:103480009A818130910579F017C020915B053091C8
:103490005C058CEC9EE0B9010E948D120DC081E0AC
:1034A0008093DA0E09C020915B0530915C058EEFA8
:1034B0009EE0B9010E948D1280915B0590915C05A0
:1034C000FC01ED5FFE4F82E080835DC010925A05E3
:1034D000109259058091DD0E883078F48091DD0ED0
:1034E000882F90E0019690935A058093590580911A
:1034F000DD0E8F5F8093DD0E46C010925A0510924C
:10350000590541C020915B0530915C0580917503A0
:103510009091760328173907B1F10E94AA1733C09A
:1035200080E060E00E94B2162EC081E060E00E9460
:10353000B21629C080915B0590915C05FC01EA5FA1
:10354000FE4F8081823019F481E08093DA0E80E0B2
:1035500061E00E94B21617C080915B0590915C05F6
:10356000FC01EA5FFE4F8081823019F481E0809394
:10357000DA0E81E061E00E94B21605C08DE0809312
:1035800074030E9490151092580527960FB6F89470
:10359000DEBF0FBECDBFCF91DF910895DF93CF93F4
:1035A000CDB7DEB70E942D130E9464110E940B1943
:1035B000F9CFDF93CF9300D0CDB7DEB7A1E8B0E06D
:1035C000E1E8F0E0808182608C930E94FD151A8210
:1035D000198241C029813A8189E091E0AC01249FA0
:1035E000C001259F900D349F900D1124FC01E859D6
:1035F000F94F108289819A81880F991FFC01EA5442
:10360000F14F1182108249815A8189819A819C01EE
:103610002F5F3F4F89E091E0BC01269FC001279FAB
:10362000900D369F900D11249C012B593A4F89E043
:1036300091E0BC01469FC001479F900D569F900DA1
:103640001124FC01E459F94F3183208389819A8147
:1036500001969A83898389819A81873091050CF438
:10366000B9CF1092AC0D1092AB0D85E695E090931A
:10367000C90E8093C80E84EA9CE09093CB0E809391
:10368000CA0E8FE591E190935E0580935D051092DF
:1036900061050E94ED1787E394E090935E058093A7
:1036A0005D0583E0809361050E94ED1785E695E056
:1036B00090935C0580935B0580915B0590915C0520
:1036C000FC01ED5FFE4F81E080838CEC9EE00E9468
:1036D000FC1280918F0290919002009721F08091CE
:1036E00086028093D00EAFE6B0E0EFE6F0E0808196
:1036F00082608C93A8E8B0E0E4E8F0E080819181FA
:10370000805F984D11969C938E93E6E3F0E082E003
:1037100080830E94CE1A0F900F90CF91DF91089571
:10372000DF93CF93CDB7DEB70E94D91A80E090E047
:10373000CF91DF9108950F931F93CF93DF93482F7D
:10374000FB018B0100581F4FD801CD91DC91CE01B8
:10375000019660E870E00E941F2E9C01EE57FF4F1B
:1037600080819181E258F0402817390731F0CE0F5F
:10377000DF1F4883F80131832083DF91CF911F91B0
:103780000F9108951F920F920FB60F920BB60F92E2
:1037900011242F933F934F935F936F937F938F9356
:1037A0009F93AF93BF93EF93FF938091C60064E024
:1037B0007FE00E949B1BFF91EF91BF91AF919F9182
:1037C0008F917F916F915F914F913F912F910F90CA
:1037D0000BBE0F900FBE0F901F9018951F920F9267
:1037E0000FB60F920BB60F9211242F933F934F9366
:1037F0005F936F937F938F939F93AF93BF93EF9359
:10380000FF938091CE0068E87FE00E949B1BFF91B0
:10381000EF91BF91AF919F918F917F916F915F9148
:103820004F913F912F910F900BBE0F900FBE0F90B5
:103830001F9018951F920F920FB60F920BB60F9212
:1038400011242F933F934F935F936F937F938F93A5
:103850009F93AF93BF93EF93FF938091D6006CE05B
:1038600070E10E949B1BFF91EF91BF91AF919F91DF
:103870008F917F916F915F914F913F912F910F9019
:103880000BBE0F900FBE0F901F9018951F920F92B6
:103890000FB60F920BB60F9211242F933F934F93B5
:1038A0005F936F937F938F939F93AF93BF93EF93A8
:1038B000FF938091360160E970E10E949B1BFF91AC
:1038C000EF91BF91AF919F918F917F916F915F9198
:1038D0004F913F912F910F900BBE0F900FBE0F9005
:1038E0001F9018958F92AF92CF92DF92EF92FF9236
:1038F0000F931F93DF93CF93CDB7DEB7FC018BE718
:1039000093E09183808373836283558344833783F9
:10391000268311870087F386E286D586C486A6862D
:1039200087868D85808B8E85818B8F85828BCF91CD
:10393000DF911F910F91FF90EF90DF90CF90AF90AC
:103940008F9008958F92AF92CF92DF92EF92FF9275
:103950000F931F93DF93CF93CDB7DEB7FC018BE7B7
:1039600093E0918380837383628355834483378399
:10397000268311870087F386E286D586C486A686CD
:1039800087868D85808B8E85818B8F85828BCF916D
:10399000DF911F910F91FF90EF90DF90CF90AF904C
:1039A0008F9008955F926F927F928F929F92AF92C5
:1039B000BF92CF92DF92EF92FF920F931F93CF931C
:1039C000DF93EC015A016B0181E4A81682E4B8068A
:1039D0008FE0C80680E0D80608F077C060E874E899
:1039E0008EE190E0A60195010E94322E39014A0134
:1039F00008946108710881089108969487947794D7
:103A00006794A40193012F5F3F4F4F4F5F4F74E0C6
:103A1000220F331F441F551F7A95D1F760E074E2DF
:103A200084EF90E00E94322ECA01B9012FEF30E0FE
:103A300040E050E00E94EC2DA60195010E94322E3C
:103A40008FEF90E0821B930B181619061CF4522E70
:103A5000509402C0522E539460E079E08DE390E0E0
:103A6000A60195010E94322E215030404040504026
:103A700056954795379527952F5F3F4F4F4F5F4F8F
:103A800093E0220F331F441F551F9A95D1F760E032
:103A900074E284EF90E00E94322ECA01B9012FEF48
:103AA00030E040E050E00E94EC2DA60195010E941C
:103AB000322E8FEF90E0821B930B1816190614F428
:103AC000209501C02F5F2515F0F4E885F98581E088
:103AD00090E00A8802C0880F991F0A94E2F7808359
:103AE00060E079E08DE390E0A60195010E94322E1E
:103AF0002150304040405040569547953795279586
:103B0000822F232F05C0E885F9851082862D272D69
:103B1000EC81FD812083EE81FF818083EA85FB8536
:103B2000208141E050E0CA010E8402C0880F991F35
:103B30000A94E2F7282B2083EA85FB852081CA01BD
:103B40000F8402C0880F991F0A94E2F7282B208364
:103B5000EA85FB858081088802C0440F551F0A94BE
:103B6000E2F7842B8083DF91CF911F910F91FF901B
:103B7000EF90DF90CF90BF90AF909F908F907F900D
:103B80006F905F900895FC01A285B3854C9121E070
:103B900030E0C901068402C0880F991F0A94E2F739
:103BA000809584238C93A285B3854C91C9010784A9
:103BB00002C0880F991F0A94E2F7809584238C93A2
:103BC000A285B3858C91008802C0220F331F0A940E
:103BD000E2F7209528232C930895DC011296ED91AD
:103BE000FC911397E058FF4F8191919180589F4F1E
:103BF00020813181821B930B60E870E00E941F2EB0
:103C00000895CF93DF93DC011296ED91FC91139709
:103C1000EF01CE57DF4F48815981E058FF4F808137
:103C20009181E058F0408417950719F42FEF3FEF8A
:103C30000CC0E40FF51F2081CA01019660E870E016
:103C40000E941F2E9983888330E0C901DF91CF91B4
:103C50000895DC011296ED91FC911397EE57FF4FFA
:103C600080819181929382930895FC01A085B18512
:103C700021898C9190E0022E02C0959587950A9437
:103C8000E2F780FFF6CF0484F585E02D6083089588
:103C90002BE733E0309315112093141184E09FE05B
:103CA000909317118093161185EC90E09093191161
:103CB0008093181184EC90E090931B1180931A115B
:103CC00080EC90E090931D1180931C1181EC90E0AA
:103CD00090931F1180931E1186EC90E09093211118
:103CE00080932011E4E0E093221173E0709323119C
:103CF00067E06093241155E05093251141E0409313
:103D00002611309328112093271188E89FE0909383
:103D10002A11809329118DEC90E090932C118093BF
:103D20002B118CEC90E090932E1180932D1188EC48
:103D300090E09093301180932F1189EC90E0909354
:103D40003211809331118EEC90E090933411809376
:103D50003311E093351170933611609337115093FE
:103D600038114093391130933B1120933A118CE074
:103D700090E190933D1180933C1185ED90E09093FC
:103D80003F1180933E1184ED90E090934111809318
:103D9000401180ED90E0909343118093421181EDAA
:103DA00090E0909345118093441186ED90E09093BC
:103DB000471180934611E093481170934911609325
:103DC0004A1150934B1140934C1130934E11209354
:103DD0004D1180E990E19093501180934F1185E34C
:103DE00091E0909352118093511184E391E090936C
:103DF00054118093531180E391E090935611809376
:103E0000551181E391E0909358118093571186E307
:103E100091E090935A1180935911E0935B11709344
:103E20005C1160935D1150935E1140935F11089592
:103E30000F931F93CF93DF938C01EB0109C0219661
:103E4000D801ED91FC910190F081E02DC801099518
:103E500068816623A1F7DF91CF911F910F9108959B
:103E6000EF92FF920F931F93CF93DF938C017B010F
:103E7000EA010CC0D7016D917D01D801ED91FC9153
:103E80000190F081E02DC80109952197209791F7C5
:103E9000DF91CF911F910F91FF90EF900895DC017A
:103EA000ED91FC910280F381E02D099508952F9208
:103EB0003F924F925F926F927F928F929F92AF92BA
:103EC000BF92CF92DF92EF92FF920F931F93DF93F7
:103ED000CF93CDB7DEB7A0970FB6F894DEBF0FBE75
:103EE000CDBF1C016A017B014115510561057105BA
:103EF00049F440E350E060E070E020E030E00E94F0
:103F0000212054C0882499245401422E552466242B
:103F1000772401E010E00C0F1D1F080D191DC701CB
:103F2000B601A30192010E94322EF8016083089429
:103F3000811C911CA11CB11CC701B601A3019201F7
:103F40000E94322EC901DA016C017D01C114D10435
:103F5000E104F104F1F681E0E82EF12CEC0EFD1EF7
:103F6000E80CF91C3E010894611C711CD501C401C8
:103F70000197A109B1096C01C818D90814C0F6014C
:103F8000EE0DFF1D40814A3010F4405D01C0495CD8
:103F900050E060E070E0C10120E030E00E942120AC
:103FA0000894E108F1086E147F0449F7A0960FB653
:103FB000F894DEBF0FBECDBFCF91DF911F910F915F
:103FC000FF90EF90DF90CF90BF90AF909F908F9039
:103FD0007F906F905F904F903F902F900895DC01FD
:103FE0002115310541F4ED91FC910190F081E02D16
:103FF000642F099508950E94571F0895EF92FF922C
:104000000F931F939A017B0100E010E0B801A70114
:104010000E94EF1F1F910F91FF90EF900895EF9274
:10402000FF920F931F939A01E62EFF2400E010E009
:10403000B801A7010E94EF1F1F910F91FF90EF9011
:104040000895EF92FF920F931F93CF93DF93EC01AC
:104050007A018B012115310541F4E881F981019044
:10406000F081E02D642F09951BC02A303105B1F491
:1040700077FF10C04DE250E060E070E020E030E0FB
:104080000E94212010950095F094E094E11CF11C11
:10409000011D111DCE01B801A7012AE00E94571F82
:1040A000DF91CF911F910F91FF90EF900895EF92C4
:1040B000FF920F931F937B019A010027F7FC009555
:1040C000102FB801A7010E9421201F910F91FF908E
:1040D000EF900895EF92FF920F931F939A01E62EAF
:1040E000FF2400E010E0B801A7010E9421201F91E9
:1040F0000F91FF90EF9008950F931F938C014DE067
:1041000050E060E070E020E030E00E942120C80133
:104110004AE050E060E070E020E030E00E942120C2
:104120001F910F9108950F931F938C010E94EF1F11
:10413000C8010E947C201F910F910895CF92DF92B9
:10414000EF92FF920F931F938C019A016B01EE2463
:10415000FF24B701A6010E94EF1FC8010E947C2026
:104160001F910F91FF90EF90DF90CF900895CF9225
:10417000DF92EF92FF920F931F938C019A01C62E4C
:10418000DD24EE24FF24B701A6010E94EF1FC80121
:104190000E947C201F910F91FF90EF90DF90CF90B5
:1041A00008950F931F938C010E944F1FC8010E9416
:1041B0007C201F910F9108950F931F938C010E94F3
:1041C0002120C8010E947C201F910F910895CF9259
:1041D000DF92EF92FF920F931F938C016B019A0174
:1041E000EE24D7FCE094FE2CB701A6010E9421200A
:1041F000C8010E947C201F910F91FF90EF90DF90EB
:10420000CF900895CF92DF92EF92FF920F931F937A
:104210008C019A01C62EDD24EE24FF24B701A601ED
:104220000E942120C8010E947C201F910F91FF90C5
:10423000EF90DF90CF9008959F92AF92BF92CF9270
:10424000DF92EF92FF920F931F93CF93DF93EC01D6
:104250007A018B01922ECB01BA0120E030E040E0E0
:1042600050E00E949C2A88236CF4CE014DE250E07D
:1042700060E070E020E030E00E94212017FB109504
:1042800017F9109520E030E040E05FE3AA240BC06E
:10429000CA01B90120E030E040E251E40E949029D7
:1042A0009B01AC01A394A91498F3C801B7010E9423
:1042B00069285B016C010E94C0267B018C01CE0144
:1042C000B801A7012AE030E00E94EF1F992029F0F1
:1042D000CE0161E873E00E944F1FC801B7010E9440
:1042E0007E2B9B01AC01C601B5010E94382822C07B
:1042F00020E030E040E251E40E9496287B018C01EE
:104300000E942A2B5B016C01CC24B7FCC094DC2CEE
:10431000CE01B601A5012AE030E00E942120C601AD
:10432000B5010E94CC2A9B01AC01C801B7010E94D3
:1043300038289A949920E1F6DF91CF911F910F913F
:10434000FF90EF90DF90CF90BF90AF909F90089537
:104350000E941C2108950F931F938C010E941C2121
:10436000C8010E947C201F910F910895883008F0A9
:1043700078C0E82FF0E0EE0FFF1FE05AFE4E718389
:1043800060838330D9F0843030F4813009F444C044
:10439000823060F439C0853051F18530D8F08630F4
:1043A00009F446C0873009F05CC04FC080916900B5
:1043B0008C7F842B80936900E89A0895809169002E
:1043C000440F551F440F551F837F842B8093690032
:1043D000E99A08958091690074E0440F551F7A9519
:1043E000E1F78F7C842B80936900EA9A089580918D
:1043F000690066E0440F551F6A95E1F78F73842BBF
:1044000080936900EB9A089580916A008C7F842BD9
:1044100080936A00EC9A089580916A00440F551FBA
:10442000440F551F837F842B80936A00ED9A089573
:1044300080916A0024E0440F551F2A95E1F78F7C94
:10444000842B80936A00EE9A089580916A0096E02A
:10445000440F551F9A95E1F78F73842B80936A0060
:10446000EF9A0895883048F5833091F0843028F42D
:104470008130B1F0823050F411C0853069F0853060
:1044800048F0863079F0873081F40EC0E8980DC08E
:10449000E9980BC0EA9809C0EB9807C0EC9805C0F2
:1044A000ED9803C0EE9801C0EF98E82FF0E0EE0F12
:1044B000FF1FE05AFE4E1182108208951F920F9244
:1044C0000FB60F920BB60F9211242F933F934F9379
:1044D0005F936F937F938F939F93AF93BF93EF936C
:1044E000FF938091641190916511892B29F0E091DF
:1044F0006411F09165110995FF91EF91BF91AF9112
:104500009F918F917F916F915F914F913F912F91EB
:104510000F900BBE0F900FBE0F901F9018951F921B
:104520000F920FB60F920BB60F9211242F933F9359
:104530004F935F936F937F938F939F93AF93BF93AB
:10454000EF93FF938091661190916711892B29F069
:10455000E0916611F09167110995FF91EF91BF917C
:10456000AF919F918F917F916F915F914F913F910B
:104570002F910F900BBE0F900FBE0F901F901895AC
:104580001F920F920FB60F920BB60F9211242F931A
:104590003F934F935F936F937F938F939F93AF93CB
:1045A000BF93EF93FF938091681190916911892BCC
:1045B00029F0E0916811F09169110995FF91EF914F
:1045C000BF91AF919F918F917F916F915F914F912B
:1045D0003F912F910F900BBE0F900FBE0F901F9029
:1045E00018951F920F920FB60F920BB60F921124CF
:1045F0002F933F934F935F936F937F938F939F93EB
:10460000AF93BF93EF93FF9380916A1190916B11D9
:10461000892B29F0E0916A11F0916B110995FF91B6
:10462000EF91BF91AF919F918F917F916F915F912A
:104630004F913F912F910F900BBE0F900FBE0F9097
:104640001F9018951F920F920FB60F920BB60F92F4
:1046500011242F933F934F935F936F937F938F9387
:104660009F93AF93BF93EF93FF93809160119091CD
:104670006111892B29F0E0916011F0916111099588
:10468000FF91EF91BF91AF919F918F917F916F912A
:104690005F914F913F912F910F900BBE0F900FBEE6
:1046A0000F901F9018951F920F920FB60F920BB696
:1046B0000F9211242F933F934F935F936F937F93A8
:1046C0008F939F93AF93BF93EF93FF93809162116A
:1046D00090916311892B29F0E0916211F09163119F
:1046E0000995FF91EF91BF91AF919F918F917F912C
:1046F0006F915F914F913F912F910F900BBE0F9053
:104700000FBE0F901F9018951F920F920FB60F9229
:104710000BB60F9211242F933F934F935F936F9398
:104720007F938F939F93AF93BF93EF93FF9380916A
:104730006C1190916D11892B29F0E0916C11F09121
:104740006D110995FF91EF91BF91AF919F918F915D
:104750007F916F915F914F913F912F910F900BBE81
:104760000F900FBE0F901F9018951F920F920FB6CB
:104770000F920BB60F9211242F933F934F935F9399
:104780006F937F938F939F93AF93BF93EF93FF9319
:1047900080916E1190916F11892B29F0E0916E112B
:1047A000F0916F110995FF91EF91BF91AF919F919A
:1047B0008F917F916F915F914F913F912F910F90CA
:1047C0000BBE0F900FBE0F901F9018951F920F9267
:1047D0000FB60F9211242F933F938F939F93AF9314
:1047E000BF938091741190917511A0917611B09141
:1047F0007711309178110196A11DB11D232F2D5FE6
:104800002D3720F02D570196A11DB11D2093781151
:104810008093741190937511A0937611B0937711D2
:104820008091701190917111A0917211B0917311DA
:104830000196A11DB11D8093701190937111A093E9
:104840007211B0937311BF91AF919F918F913F916E
:104850002F910F900FBE0F901F9018958FB7F8945F
:10486000209174113091751140917611509177110A
:104870008FBFB901CA0108959FB7F89420917011B4
:1048800030917111409172115091731186B5A89BAE
:1048900006C08F3F21F02F5F3F4F4F4F5F4F9FBFAD
:1048A000542F432F322F2227280F311D411D511D18
:1048B00082E0220F331F441F551F8A95D1F7B9019B
:1048C000CA010895EF92FF920F931F937B018C0111
:1048D0008FB7F894409174115091751160917611D1
:1048E000709177118FBF2FB7F894809174119091C8
:1048F0007511A0917611B09177112FBF841B950B84
:10490000A60BB70BE816F9060A071B0760F71F91FD
:104910000F91FF90EF900895019739F0880F991F3C
:10492000880F991F02970197F1F70895789484B53D
:10493000826084BD84B5816084BD85B5826085BD9B
:1049400085B5816085BDEEE6F0E080818160808381
:10495000E1EBF0E0808184608083E0EBF0E0808137
:1049600081608083E1E9F0E08081826080838081E2
:1049700081608083E1EAF0E08081826080838081D1
:1049800081608083E1E2F1E08081826080838081C8
:1049900081608083E0E9F0E0808181608083E0EAEB
:1049A000F0E0808181608083E0E2F1E080818160DD
:1049B0008083EAE7F0E08081846080838081826088
:1049C0008083808181608083808180688083109271
:1049D000C10008958DE061E00E94ED25F894FFCFBD
:1049E00080938D030895382F377020918D03229581
:1049F000220F220F207C232B20937C0020917B0010
:104A000086958695869590E08170907033E0880F4A
:104A1000991F3A95E1F7277F282B20937B008091FF
:104A20007A00806480937A0080917A0086FDFCCFC2
:104A30002091780040917900942F80E030E0282B7D
:104A4000392BC90108951F93CF93DF93182FEB01E2
:104A500061E00E94CD25E12FF0E0E254FE4F849109
:104A6000833009F496C0843009F493C0813041F456
:104A7000209709F487C084B5806884BDC7BD89C00C
:104A8000823041F4209709F47DC084B5806284BDF2
:104A9000C8BD7FC0863041F48091B00080688093AB
:104AA000B000C093B30075C0873041F48091B0006E
:104AB00080628093B000C093B4006BC0883051F422
:104AC00080919000806880939000D0939900C0936B
:104AD00098005FC0893051F480919000806280938B
:104AE0009000D0939B00C0939A0053C08A3051F439
:104AF00080919000886080939000D0939D00C09337
:104B00009C0047C08B3051F48091A0008068809356
:104B1000A000D093A900C093A8003BC084918C3022
:104B200051F48091A00080628093A000D093AB00EC
:104B3000C093AA002EC08D3051F48091A0008860EF
:104B40008093A000D093AD00C093AC0022C08E3003
:104B500051F480912001806880932001D093290135
:104B6000C093280116C08F3051F4809120018062DB
:104B700080932001D0932B01C0932A010AC0C03832
:104B8000D1051CF4812F60E002C0812F61E00E94FA
:104B9000ED25DF91CF911F910895282F30E0C901B5
:104BA00088589E4FFC0194912E5C3E4FF9018491F0
:104BB000882391F0E82FF0E0EE0FFF1FEC51FF4F3C
:104BC000A591B491662329F48C91909589238C93B7
:104BD00008958C91892B8C930895482F50E0CA0139
:104BE00082549E4FFC012491CA0188589E4FFC01BB
:104BF00094914E5C5E4FFA013491332309F455C011
:104C0000222309F440C0213019F484B58F7704C001
:104C1000223021F484B58F7D84BD35C0263021F447
:104C20008091B0008F7705C0273031F48091B000BB
:104C30008F7D8093B00027C0283021F480919000B0
:104C40008F770BC0293021F4809190008F7D05C0B3
:104C50002A3031F480919000877F8093900013C0B8
:104C60002B3021F48091A0008F770BC02C3021F4E1
:104C70008091A0008F7D05C02D3029F48091A00087
:104C8000877F8093A000E32FF0E0EE0FFF1FE2503C
:104C9000FF4FA591B491662329F48C9190958923B7
:104CA0008C9308958C91892B8C930895682F70E0D4
:104CB000CB0182549E4FFC012491CB0188589E4F1A
:104CC000FC0144916E5C7E4FFB019491992319F491
:104CD00020E030E053C0222309F440C0213019F411
:104CE00084B58F7704C0223021F484B58F7D84BDD4
:104CF00035C0263021F48091B0008F7705C0273071
:104D000031F48091B0008F7D8093B00027C02830AF
:104D100021F4809190008F770BC0293021F480918D
:104D200090008F7D05C02A3031F480919000877FFC
:104D30008093900013C02B3021F48091A0008F77D6
:104D40000BC02C3021F48091A0008F7D05C02D3048
:104D500029F48091A000877F8093A000892F90E0A4
:104D6000880F991F885E9E4FFC01A591B4918C918C
:104D700020E030E0842311F021E030E0C901089503
:104D8000EF92FF920F931F937B018C0120E030E0A4
:104D900040E05FE40E946C2A88238CF0C801B701D0
:104DA00020E030E040E05FE40E9438280E942A2B97
:104DB0009B01AC01205030404040504806C0C80123
:104DC000B7010E942A2B9B01AC01B901CA011F91B6
:104DD0000F91FF90EF900895A0E0B0E0E2EFF6E2CF
:104DE0000C94542EDC012B01FA019C91923008F4B2
:104DF00039C1EB018881823008F433C1943069F401
:104E0000843009F02FC111969C91119789819817D0
:104E100009F428C1AEE8B3E025C1843009F421C10A
:104E20008230A9F4923009F01DC19A01AD0188E0E9
:104E3000EA010990AE01E90109929E018150C1F792
:104E4000E201898111969C918923818308C1923066
:104E500009F407C112962D903C901397EB018A81BB
:104E60009B811496AD90BD90CD90DC901797EC800F
:104E7000FD800E811F819101281B390BB90137FF7D
:104E800004C066277727621B730B603271050CF034
:104E900061C0121613066CF537014801062E04C0D6
:104EA00096948794779467940A94D2F721E030E03F
:104EB00040E050E004C0220F331F441F551F6A9585
:104EC000D2F721503040404050402E213F21402316
:104ED0005123211531054105510521F021E030E034
:104EE00040E050E079018A01E628F72808291929CD
:104EF0003CC0232BD1F1260E371E35014601062E6C
:104F000004C096948794779467940A94D2F721E02A
:104F100030E040E050E004C0220F331F441F551F13
:104F20006A95D2F721503040404050402A213B2121
:104F30004C215D21211531054105510521F021E06C
:104F400030E040E050E059016A01A628B728C8289F
:104F5000D9280BC0821593052CF01C01AA24BB2470
:104F6000650103C0EE24FF24870111969C91D201B4
:104F700011968C91981709F445C0992339F0A8012E
:104F800097012A193B094C095D0906C0A601950144
:104F90002E193F09400B510B57FD08C01182338277
:104FA000228224833583468357831DC081E0818319
:104FB0003382228288279927DC01821B930BA40B62
:104FC000B50B84839583A683B7830DC0220F331F4F
:104FD000441F551F248335834683578382819381E1
:104FE0000197938382832481358146815781DA0139
:104FF000C9010197A109B1098F5F9F4FAF4FBF430F
:1050000028F30BC0918333822282EA0CFB1C0C1D17
:105010001D1DE482F5820683178383E0808324814B
:1050200035814681578157FF1AC0C901AA2797FDCC
:10503000A095BA2F81709070A070B070569547956A
:1050400037952795822B932BA42BB52B848395839F
:10505000A683B78382819381019693838283DF0144
:1050600001C0D201CD01CDB7DEB7E2E10C94702EC4
:10507000A0E2B0E0EEE3F8E20C94602E69837A835C
:105080008B839C832D833E834F835887E9E0EE2EEC
:10509000F12CEC0EFD1ECE010196B7010E941B2DD6
:1050A0008E010F5E1F4FCE010596B8010E941B2D89
:1050B0008A8991E089278A8BC701B801AE01475ED2
:1050C0005F4F0E94EC260E94462CA096E6E00C94CE
:1050D0007C2EA0E2B0E0EFE6F8E20C94602E69834B
:1050E0007A838B839C832D833E834F835887F9E09B
:1050F000EF2EF12CEC0EFD1ECE010196B7010E94A1
:105100001B2D8E010F5E1F4FCE010596B8010E9428
:105110001B2DC701B801AE01475E5F4F0E94EC2610
:105120000E94462CA096E6E00C947C2EA0E2B0E013
:10513000ECE9F8E20C94542E69837A838B839C8388
:105140002D833E834F835887CE010196BE01675F52
:105150007F4F0E941B2DCE010596BE016F5E7F4FD3
:105160000E941B2D9985923088F089898230C8F081
:10517000943019F4823051F404C0843029F4923010
:1051800081F48EE893E0C6C0923049F420E09A851D
:105190008A89981321E02A87CE010996BBC0823004
:1051A00049F420E09A858A89981321E02A8BCE0160
:1051B0004196B0C02D843E844F8458886D887E8887
:1051C0008F88988CEE24FF248701AA24BB246501D4
:1051D00040E050E060E070E0E0E0F0E0C1018170AC
:1051E0009070892BE9F0E60CF71C081D191D9A0137
:1051F000AB012A0D3B1D4C1D5D1D80E090E0A0E041
:10520000B0E0E614F7040805190520F481E090E009
:10521000A0E0B0E0BA01A901480F591F6A1F7B1F27
:10522000AA0CBB1CCC1CDD1C97FE08C081E090E0E2
:10523000A0E0B0E0A82AB92ACA2ADB2A3196E032D7
:10524000F10549F0660C771C881C991C569447940C
:1052500037942794C3CFFA85EA892B893C898B85BB
:105260009C85280F391F2E5F3F4F17C0CA018170E0
:105270009070892B61F016950795F794E79480E07C
:1052800090E0A0E0B0E8E82AF92A0A2B1B2B7695DB
:105290006795579547952F5F3F4F77FDE7CF0CC038
:1052A000440F551F661F771F17FD4160EE0CFF1C52
:1052B000001F111F21503040403090E0590790E00E
:1052C000690790E4790760F32B8F3C8FDB01CA01FB
:1052D0008F779070A070B07080349105A105B105F2
:1052E00061F447FD0AC0E114F1040105110529F03C
:1052F000405C5F4F6F4F7F4F40781A8EFE1711F062
:1053000081E08A8F4D8F5E8F6F8F78A383E0898FC6
:10531000CE0149960E94462CA096E2E10C94702E94
:10532000A8E1B0E0E6E9F9E20C945C2E69837A83A7
:105330008B839C832D833E834F835887B9E0EB2E6C
:10534000F12CEC0EFD1ECE010196B7010E941B2D23
:105350008E010F5E1F4FCE010596B8010E941B2DD6
:105360002985223008F47EC03989323010F4B80122
:105370007CC08A859A8989278A87243011F0223057
:1053800031F4231709F06EC06EE873E06EC034305C
:1053900039F41D861E861F86188A1C861B8604C04B
:1053A000323021F484E08987B7015FC02B853C85CA
:1053B0008B899C89281B390B3C872B87ED84FE84C5
:1053C0000F851889AD88BE88CF88D88CEA14FB0475
:1053D0000C051D0540F4EE0CFF1C001F111F215091
:1053E00030403C872B8720E030E040E050E080E018
:1053F00090E0A0E0B0E460E070E0EA14FB040C058B
:105400001D0540F0282B392B4A2B5B2BEA18FB0893
:105410000C091D09B695A79597958795EE0CFF1C6D
:10542000001F111F6F5F7F4F6F31710531F7DA0178
:10543000C9018F779070A070B07080349105A1057C
:10544000B10561F427FD0AC0E114F104010511055D
:1054500029F0205C3F4F4F4F5F4F20782D873E87CC
:105460004F87588BBE01675F7F4FCB010E94462C50
:105470006896EAE00C94782EA8E1B0E0E2E4FAE263
:105480000C94602E69837A838B839C832D833E8367
:105490004F83588789E0E82EF12CEC0EFD1ECE01DB
:1054A0000196B7010E941B2D8E010F5E1F4FCE018A
:1054B0000596B8010E941B2D8985823040F08989AC
:1054C000823028F0C701B8010E94932D01C08FEFF0
:1054D0006896E6E00C947C2EA8E1B0E0E2E7FAE200
:1054E0000C94602E69837A838B839C832D833E8307
:1054F0004F83588789E0E82EF12CEC0EFD1ECE017B
:105500000196B7010E941B2D8E010F5E1F4FCE0129
:105510000596B8010E941B2D8985823040F089894B
:10552000823028F0C701B8010E94932D01C08FEF8F
:105530006896E6E00C947C2EA8E1B0E0E2EAFAE29C
:105540000C94602E69837A838B839C832D833E83A6
:105550004F83588789E0E82EF12CEC0EFD1ECE011A
:105560000196B7010E941B2D8E010F5E1F4FCE01C9
:105570000596B8010E941B2D8985823040F08989EB
:10558000823028F0C701B8010E94932D01C081E04C
:105590006896E6E00C947C2EA8E0B0E0E2EDFAE23A
:1055A0000C945D2E9B01AC0183E08983DA01C90173
:1055B0008827B7FD83959927AA27BB27B82E2115E1
:1055C00031054105510519F482E089833AC08823E9
:1055D000A9F0203080E0380780E0480780E85807CD
:1055E00029F460E070E080E09FEC30C0EE24FF24FE
:1055F0008701E21AF30A040B150B02C079018A0134
:105600008EE1C82ED12CDC82CB82ED82FE820F830C
:105610001887C801B7010E94F72B019718161906C1
:1056200084F4082E04C0EE0CFF1C001F111F0A9406
:10563000D2F7ED82FE820F831887C81AD90ADC825E
:10564000CB82BA82CE0101960E94462C2896E9E0D0
:105650000C94792EACE0B0E0E0E3FBE20C94642E15
:1056600069837A838B839C83CE010196BE016B5F35
:105670007F4F0E941B2D8D81823061F1823050F16D
:10568000843021F48E81882351F12EC02F813885FA
:1056900037FD20C06E812F3131051CF06623F9F0F3
:1056A00023C08EE190E0821B930B29853A854B85C0
:1056B0005C8504C056954795379527958A95D2F70E
:1056C0006623B1F050954095309521953F4F4F4F4F
:1056D0005F4F0EC020E030E040E050E009C02FEF07
:1056E0003FEF4FEF5FE704C020E030E040E050E8DC
:1056F000B901CA012C96E2E00C94802EA8E0B0E03B
:10570000E4E8FBE20C945C2E7B018C0161157105D1
:105710008105910519F482E0898360C083E0898363
:105720008EE1C82ED12CDC82CB82ED82FE820F83EB
:105730001887C801B7010E94F72BFC013197F7FFCA
:105740003BC0222733272E1B3F0B57016801022E37
:1057500004C0D694C794B794A7940A94D2F740E0B3
:1057600050E060E070E081E090E0A0E0B0E004C0D4
:10577000880F991FAA1FBB1F2A95D2F70197A1096D
:10578000B1098E219F21A023B1230097A105B10566
:1057900021F041E050E060E070E04A295B296C298B
:1057A0007D294D835E836F8378878EE190E08E1B29
:1057B0009F0B9C838B8312C0309781F00E2E04C008
:1057C000EE0CFF1C001F111F0A94D2F7ED82FE821F
:1057D0000F831887CE1ADF0ADC82CB821A82CE01B1
:1057E00001960E94462C2896EAE00C94782EEF92BF
:1057F000FF920F931F937B018C0180E0E81680E0FD
:10580000F80681E0080780E0180788F48FEFE816B3
:10581000F1040105110531F028F088E090E0A0E0E6
:10582000B0E017C080E090E0A0E0B0E012C080E0FF
:10583000E81680E0F80680E0080781E0180728F005
:1058400088E190E0A0E0B0E004C080E190E0A0E05A
:10585000B0E020E230E040E050E0281B390B4A0B7A
:105860005B0B04C016950795F794E7948A95D2F7D9
:10587000F701EA56FC4F8081281B31094109510983
:10588000C9011F910F91FF90EF900895DF92EF9261
:10589000FF920F931F93FC01E480F580068117812E
:1058A000D1808081823048F480E090E0A0E1B0E0D7
:1058B000E82AF92A0A2B1B2BA5C0843009F49FC0C3
:1058C000823021F4EE24FF24870105C0E114F104A5
:1058D0000105110519F4E0E0F0E096C062817381E2
:1058E0009FEF623879070CF05BC022E83FEF261B80
:1058F000370B2A3131052CF020E030E040E050E059
:105900002AC0B801A701022E04C076956795579565
:1059100047950A94D2F781E090E0A0E0B0E004C09F
:10592000880F991FAA1FBB1F2A95D2F70197A109BB
:10593000B1098E219F21A023B1230097A105B105B4
:1059400021F081E090E0A0E0B0E09A01AB01282BCB
:10595000392B4A2B5B2BDA01C9018F779070A0702D
:10596000B07080349105A105B10539F427FF09C055
:10597000205C3F4F4F4F5F4F04C0215C3F4F4F4F64
:105980005F4FE0E0F0E02030A0E03A07A0E04A07F7
:10599000A0E45A0710F0E1E0F0E079018A0127C0A5
:1059A0006038710564F5FB01E158FF4FD801C7016C
:1059B0008F779070A070B07080349105A105B1050B
:1059C00039F4E7FE0DC080E490E0A0E0B0E004C050
:1059D0008FE390E0A0E0B0E0E80EF91E0A1F1B1F65
:1059E00017FF05C016950795F794E794319687E061
:1059F00016950795F794E7948A95D1F705C0EE249C
:105A0000FF248701EFEFF0E06E2F6795662767951B
:105A1000902F9F77D794DD24D7948E2F8695492F8A
:105A2000462B582F5D29B701CA011F910F91FF9096
:105A3000EF90DF900895FC01DB01408151812281CC
:105A4000622F6F7770E0221F2227221F9381892FF8
:105A5000880F822B282F30E0991F9927991F1196C4
:105A60009C93119721153105A9F541155105610543
:105A7000710511F482E037C082E89FEF13969C9382
:105A80008E9312979A01AB0167E0220F331F441FD8
:105A9000551F6A95D1F783E08C930DC0220F331FF9
:105AA000441F551F12968D919C9113970197139641
:105AB0009C938E931297203080E0380780E048074F
:105AC00080E4580758F314962D933D934D935C93BF
:105AD000179708952F3F310579F441155105610558
